:020000040003F7
:10020000F80B0020393B03000D3C0300513704007C
:100210007137040091370400D1370400B13704006E
:1002200000000000000000000000000099650300CD
:100230000D3C030000000000237703000D3C030089
:10024000000000000000000000000000937903009F
:10025000000000000D3C0300000000000000000052
:100260000D3C03000D3C03000D3C03000D3C03005E
:10027000000000000D3C03000D3C03000D3C03009A
:100280000D3C03000D3C03000000000000000000D6
:100290000D3C03000D3C03000000000000000000C6
:1002A0000D3C030000000000000000000D3C0300B6
:1002B0000D3C03000D3C03000D3C03000D3C03000E
:1002C0000D3C03000D3C03000D3C03000D3C0300FE
:1002D0000D3C0300000000000D3C03000000000086
:1002E0000D3C0300000000000D3C03000000000076
:1002F0000D3C0300000000000000000000000000B2
:10030000000000000D3C03000000000000000000A1
:1003100000000000000000000000000000000000DD
:10032000000000000D3C0300000000000000000081
:1003300000000000000000000000000000000000BD
:100340000D3C030000015F5F02000000FE0B000097
:1003500075660300000400000000000000000000BB
:100360000000000000000000000000000100FFC3CA
:10037000000000C4E0A800200000000001015F5F51
:10038000030100001F0100005512030000200000BF
:10039000000000000100000001000000000000005B
:1003A000000000000000000000000000781D002098
:1003B00000000000700000007A5804008000000077
:1003C000000F000001000000D10503000100000043
:1003D00001015F5F000100001F0000002D380300D5
:1003E0000007000000000000030000000100000002
:1003F00000000000000000000000000000000000FD
:1004000010160020000000008000000070000000B6
:100410004000000085580400600000000107000053
:1004200001000000C12D03000100000001015F5F19
:10043000010100001F010000ED1A03002007000069
:1004400000000000000000000100000000000000AB
:10045000000000000000000000000000783D0020C7
:1004600000000000A358040070000000020F00000C
:1004700001000000C90803000100000001015F5FE6
:10048000040100001F010000DD2C03000005000036
:10049000000000000000000001000000000000005B
:1004A0000000000000000000000000009844002050
:1004B00000000000C85804004000000005070000CC
:0C04C000010000008F2A03000100000072
:1004E00038B500250648294600F58054D4F8002484
:1004F000C4F8045413F0D5F9C4F8005438BD00BF53
:1005000098490020024BD3F8043403600020704760
:100510009859002037B511460022CDE900224268E3
:100520000346402A04684BD1228D150A032D17D0AB
:10053000012D37D024482468D0F80404AA1ECDE940
:100540000040082A36D8DFE802F0050B0F14191E08
:10055000232830006A46184601F0DCF903B030BDAC
:10056000184600F088FEF9E76A46184600F044FF96
:10057000F4E76A46184600F07BFEEFE76A46184645
:1005800000F0F6FFEAE76A46184601F0F9F8E5E7F9
:100590006A46184601F0F7F8E0E76A46184601F0A7
:1005A000F5F8DBE701F071FAD8E76A46184601F082
:1005B0009AFAD3E7054813F0FEF96FF08500CDE70E
:1005C0006FF08000CAE700BF98590020242D030077
:1005D0002DE9F04F05680446A3B0002D40F0B5802A
:1005E0002022294602A813F05CF912AF20222946E6
:1005F0000AA813F056F940222946384613F051F95B
:10060000E26904F11C039846B2B10426E26A04F1DF
:100610002C03EAB10425EEB96FF08306304623B00F
:10062000BDE8F08F002EF1D053F8041D3246013E94
:100630000029F7D01646E9E70326F5E7002DEAD0B2
:1006400053F8041D2A46013D0029F7D01546E2E77C
:100650000325F5E740233A460021606808F08CF84E
:100660004028D9D10121DFF8ECA0CDE9027004F1D6
:10067000100902AF0AF5805B8E4221D10AAF3846DD
:100680000021334A08EB8509D2F80034A2F5805ADC
:10069000C84533D109B1C2F80034A3683146C2F865
:1006A000043402A82B460AAAFFF734FF4FF00008D3
:1006B0000646454507F108073ED1FFF711FFADE7B4
:1006C00059F8043F1A1D21D8DBF800C4D81C20F0CB
:1006D0000300CCF5A052904218D860440CEB0A02FB
:1006E000CBF800046068CDE9001208F045F8019AE3
:1006F0000099F860013147F8082FBDE758F804EF7A
:100700001EF1040F07D909B1C2F80034FFF7E8FE63
:100710006FF08C0682E70EF1030C2CF0030CC3F58E
:10072000A05BDC4500F10800EDD803EB0A0140E9CD
:10073000021E63440121ABE7414657E9022360688A
:1007400008F026F808F10108B3E76FF0850665E7C1
:10075000985900209849002008B54FF4B75200215D
:10076000024813F09EF8002008BD00BFA05D0020E5
:100770000023F7B50C6807460E461546019314BBD7
:1007800022B3146001A8FFF7BDFEA8B94FF4377C6F
:10079000104A0CFB04F3D158A646013471B94FF04E
:1007A000010E02EB030C42F803E001990C331344F1
:1007B000CCE9011734602B6003B0F0BD082CE8D100
:1007C0006FF08400F8E76FF08800F5E76FF08600BF
:1007D000F2E700BFA05D00200023F7B50568019394
:1007E000013D072D036004D96FF08604204603B055
:1007F000F0BD01A8FFF786FE04460028F6D14FF4AD
:1008000037735D430A4E73597719012BECD17A681F
:10081000019B9A42E8D105F10C004FF43472214655
:10082000304413F03EF8C7E901447451DEE700BFDD
:10083000A05D0020002373B54C1E072C064615460C
:10084000019303D96FF0880002B070BDC2B101A856
:10085000FFF758FE0028F7D14FF4377202FB04F17E
:10086000094B5C585A18012CECD19468B442E9D178
:100870005468019A9442E5D10C3119442960E3E7A8
:100880006FF08600E0E700BFA05D002010B5044CCB
:100890000F222046034912F0DFFF204610BD00BFA3
:1008A000F89D0020492D030008B54FF4025104487B
:1008B00008F0FAF8034808F0BDF9002008BD00BFB1
:1008C000787D0020B73904006FF47A72F0B50368C0
:1008D000044613448DB0032B7CD8DFE803F00228D4
:1008E0004C6B0369082B02D06FF080055FE08569CF
:1008F000042DF9D10021406808AA07F03DFF08281F
:10090000F2D12B460221606806AA07F035FF0428C1
:10091000EAD16168314A63691160069ACDE9003213
:10092000DDE90823A06800F021F905463FE00369EE
:10093000082BD9D14569042DD6D10021406808AAD9
:1009400007F01AFF0828CFD12B460121606806AABC
:1009500007F012FF0428C7D16168204A236A11609A
:1009600005AACDE90132069B0093A068DDE90823C2
:1009700000F078F9D9E70369082BB5D1076A0C2F85
:10098000B2D10021406806AA07F0F6FE0828ABD1D4
:10099000DDE9062308AE0096A06800F0EDF90546F3
:1009A00028B901463B463246606807F0F1FE28460A
:1009B0000DB0F0BD0369082B96D10021406808AA4C
:1009C00007F0DAFE08288FD1DDE90823A06800F0DF
:1009D000E5F9AAE76FF08505E9E700BF807400201C
:1009E000024603480B460068012107F0C5BE00BF60
:1009F00080740020024603480B460068002107F07F
:100A0000C7BE00BF807400201FB550EA0103144622
:100A10001BD0CDE90120042203910E480DEB020109
:100A200012F01AFF08220C480DEB020112F014FF1D
:100A30000A4B0B480B4AB4F5807F08BF184605499E
:100A400004B0BDE8104001F0B0B96FF0860004B00A
:100A500010BD00BF0AA600200EA60020847400204E
:100A60009C740020B47C002030B5384B85B09D6A62
:100A7000A8470369042B03D06FF0800005B030BD98
:100A8000A847334C8368A360A847037D01A8237659
:100A900005F00CFC0028EFD1019BA26863609DF873
:100AA0000C3021465343029A2A48B2FBF3F22282C9
:100AB000294AE36001F02BF90028DFD1254801F035
:100AC00058F9002834D1A8470369042BD4D1A8478A
:100AD000224C8368A360A847037D01A8237605F014
:100AE000D7FB0028C8D1019BA26863609DF80C3039
:100AF00021465343029A1A48B2FBF3F22282164A65
:100B0000E36001F004F90028B8D1154801F031F98B
:100B10000028B3D0134812F04EFF114801F043F9FA
:100B20000028ABD10E4805B0BDE8304001F021B936
:100B30000D4812F040FF074801F035F900289DD11B
:100B4000044801F016F90028BDD097E7087F03009C
:100B50005C1D00209C740020042D0300401D00201B
:100B6000847400207E2D0300582D030019462DE9C2
:100B7000F04F52EA010385B00646DDE90E541046F7
:100B800032D0072C5CD8B6F5807F02D0B5F5006F67
:100B900059D83246FFF738FF30B92C4B9B68D9073C
:100BA00005D56FF0840021E010F18C0F1ED10027D5
:100BB000DFF8988044F44034DFF89C90DFF89CB074
:100BC000DFF89CA0C8F80450C8F80840B5F5006FDD
:100BD0002C4628BF4FF4006448462146FFF700FF2B
:100BE000B6F5807F29D027B16FF0860005B0BDE84B
:100BF000F08F4FF400630122CDE9004ACDE90232C3
:100C000013494B460C22114800F072FF0028EDD129
:100C100053461048CDE900730C4A23460C4901F0B5
:100C2000E6F80028E2D1D8F808302D1B23F4403331
:100C3000C8F808302744C9D1D8E74B465846E9E7F9
:100C40006FF08500D2E76FF08900CFE7B47C002019
:100C50000AA600209C740020B47400208474002034
:100C60000A9E002019462DE9F04F52EA010385B093
:100C70008046DDE90E6A1046DDF8409005D16FF040
:100C80008604204605B0BDE8F08FB8F5807F07D018
:100C900006EB0A03B3F5006F02D96FF08904F0E7A1
:100CA0004246FFF7B1FE04460028EAD12C4F3D68CA
:100CB000B542E4D3AD1B554528BF5546B8F5807FF6
:100CC000C9F8005021D1DFF8A480DFF898A0DFF840
:100CD000A0B0B5F5006F2F4628BF4FF4006733462C
:100CE0003A4651465846CDF8008001F09BF920B1B4
:100CF0000023C9F800300446C3E739464046FFF7F1
:100D000079FEED1B3E44E4D1BBE77B68B3F5006F91
:100D1000C3D8DFF860A00346CDF800A03A681149B7
:100D2000114801F07FF910B1C9F80040E3E74FF432
:100D30000063DFF8388003940293CDF804803B68A9
:100D40000C22009338465346064900F0D1FE002895
:100D5000EAD1294608EB0600FFF74CFE91E700BFF9
:100D6000B47C00200AA600209C740020B4740020EB
:100D7000847400200A9E002038B5054619461046A6
:100D80002A46049CFFF740FE28B9034B1A689B686B
:100D9000C4E90022A36038BDB47C002010B504462D
:100DA000194610462246FFF72FFE80B9084B9B6874
:100DB000DB070AD40748084B0849B4F5807F08BF11
:100DC0001846BDE8104001F01DB96FF0840010BD59
:100DD000B47C00209C740020847400200AA60020AB
:100DE000F8B51D46036804465B680E4617469847EB
:100DF0000B4BC0F3410013F8202063680699E068AC
:100E00001D442368B1FBF2F200FB065039469B6992
:100E100098470028B4BF6FF091000020F8BD00BFD4
:100E2000182D03002DE9F3470A9C07469146002C34
:100E300057D0C26840681E183B6802FB01665B68B9
:100E40009847294BC0F3410013F82080B6FBF8FA0D
:100E500008FB0AFA564524D03B68012250465B69DC
:100E600001A99847002804DA6FF0910002B0BDE8AC
:100E7000F087A6EB0A03E218904501AA02EB0301F2
:100E800004D92246484612F0E7FC08E0A8EB060524
:100E900055442A46484612F0DFFC641B02D100206C
:100EA000E4E700253B68A0455B690DD8B4FBF8FA80
:100EB00009EB05015246A81998470028D4DB08FB26
:100EC0000AF2A41AEBD015443B6801225B6901A920
:100ED000701998470028C7DB224601A909EB0500D5
:100EE000D1E72046C2E700BF182D03002DE9F043EB
:100EF000904600220446ADF54B7D04AD2846039193
:100F000006AE11461F4600F0C4FDA26B40F203116D
:100F1000304600F0BEFD4FF43472002116A812F0E6
:100F2000C0FC1822002109A812F0BBFC1A220021E3
:100F30000DF13E0012F0B5FC4FF6F87241F20103DC
:100F4000B2EBC70F4FF6FF72ADF820304FEAC70380
:100F500038BF134608A80121ADF8223001F0C7FEC2
:100F60000FA84FF4804101F0C2FE4FF49053DFF818
:100F700088902146226A03803346C0F80C9008F01E
:100F8000C7FB044638BB494616A808F09BFD04463B
:100F900008BB96E80C0040F2011116A813F0F6FC0D
:100FA0000446C0B9042340F2032103AA16A813F093
:100FB000E4FC044678B92A4616A908A813F044FCB4
:100FC000044640B9D29B4246009395E803003B4655
:100FD00012F020FF044616A813F066FB96E8030003
:100FE00008F05AFB95E8030008F056FB20460DF583
:100FF0004B7DBDE8F08300BF090100082DE9F04FEB
:10100000002599B004A8049507F01CFC4FF01808BF
:101010000646DFF8C4902F4FB54201D1002024E0EE
:1010200008FB05FA049B03EB0A02116949454FD1FD
:101030000021946807A853F80A2000F02AFD1C221A
:10104000002109A812F02DFC0DF10E02049B019263
:1010500006AA53440092D3F814B0202103AB05AA8A
:1010600010A8D84720B16FF0920019B0BDE8F08FFA
:101070004FF6F8714FF6FF72089B0F93BDF80C30D6
:101080008B4288BF1346ADF82630069B079A0C9317
:10109000BDF80E3009A9ADF82430049B53441B69F8
:1010A0000A9313F0FF0308BF1A4644235C4304F17C
:1010B00024000E923C441C22384412F0CDFB204602
:1010C000059A10A912F0C8FB059B23620123236433
:1010D0000135A1E7F07C0020010100807FB56B465F
:1010E000154683E8030012B300240646146003A8E3
:1010F000039407F0A7FB039BA04209D01A4652F8BD
:10110000181B8E4208D1D3E90221931E0B4306D14E
:101110006FF08B0004B070BD13460134ECE744213E
:10112000044B002001FB02331B6A2B60F2E76FF0D7
:101130008600EFE7F07C00202DE9F04F87B098465D
:10114000109B012807461446DDF844A0009304D9FB
:101150006FF0860007B0BDE8F08F442545433C4E54
:1011600073191B6C002B6DD0002AF1D0D2E905B9A0
:10117000002303A8039307F05FFB0023039A984220
:101180004FD0114651F80CCBE3454CD1D2E90113B5
:1011900039B1002253F8320081453FD103EBC2033D
:1011A0005B6805F124011C2231442046019312F0B2
:1011B00053FB5A46494604A800F06BFC0499626848
:1011C00061610599019BA161D1B221B922F0FF02B1
:1011D00042F0010262601946204601F088FD442376
:1011E00003FB07631A6A009B9A422ED8B8F1000FDE
:1011F000AED0BAF1000FABD0A36870195B0415D55F
:1012000040F20313994511D042464946009BCDF860
:1012100040A007B0BDE8F04FFFF768BE0132914231
:10122000B8D10023BDE70A460133A8E7014640468E
:1012300012F012FB442303FB0766336A0020CAF84E
:10124000003087E76FF08B0084E76FF0890081E75B
:10125000F07C002008B5FFF77FFA40B9FFF716FBD6
:10126000FFF722FB18B9BDE8084008F03DBD08BDF6
:101270006FF0850070472DE9F0430026056885B0C2
:10128000B5F828900746B9F5407F8846029612D1F6
:101290000B1D01934B6800930B68D0E9021268683C
:1012A00012F06BFF0446002858D0C8F804602046AE
:1012B00005B0BDE8F08340F20133994509D1436997
:1012C00000938168D0E90323686812F067FF044641
:1012D000EDE740F20233994519D10E6816B96FF067
:1012E0008004E4E74B68032BF9D9AB68314603204F
:1012F000336002AAFFF73CFA04460028D7D1696898
:10130000029812F0CAFE044640B330466EE0032055
:10131000A96802AAFFF78EFA6FF441734B44022BBF
:1013200004460BD90028C2D10646A9F20333042B88
:101330005FD8DFE803F015371B283200D8F80060CB
:10134000002ECCD0D8F80430032BC8D9AB6833605A
:101350000028EAD040F207339945A8D10024A6E737
:101360000298D7E9021212F0B7FEB0E7029808F12E
:101370000C03D8E9021212F0C3FE044658B1002350
:10138000C8F80C3093E70298D7E9021212F0C9FEB0
:10139000044600288BD10024B7E7029812F072FEB1
:1013A0000446B2E70023D8F800500393002D96D0EE
:1013B000D8F80430032B92D9BB68002B8FD0FA6881
:1013C000032A8CD91B68294603202B6003AAFFF748
:1013D000CFF9044600287FF46AAFDDE9020112F07C
:1013E00006FF044600283FF462AF2846FFF7F4F9F1
:1013F0005DE76FF085045AE72DE9F04F0025D0F83E
:10140000009089B0B9F828A00DF1180807460E46DB
:10141000D2E900214046059500F03BFBBAF5806F0C
:1014200016D1331D03937368029333680193FB68ED
:101430000093BB68D9F8042098E8030012F0C6FFB7
:101440000446002856D07560204609B0BDE8F08FEC
:1014500040F201439A450ED17B6902933B690193A7
:10146000FB680093BB68D9F8042098E8030012F0E9
:10147000C2FF0446E8E7AAF2024B1FFA8BF3012BE6
:101480001AD8356815B96FF08004DDE77368032B4F
:10149000F9D9D9F80830294602202B6005AAFFF7B0
:1014A00067F904460028CFD1BBF1050F5DD8DFE80E
:1014B0000BF02331393F4D570220D9F8081005AA07
:1014C000FFF7B8F9AAF20543022B044603D9002816
:1014D000BAD10546E8E73568002DD4D07368032BF0
:1014E000D1D9D9F808302B600028DDD040F207436D
:1014F0009A45A9D10024A7E7D9F80430059898E8BF
:10150000060012F0E0FE04460028F3D02846FFF75C
:1015100063F999E7D9F80430059898E8060012F0C5
:10152000DEFEF0E70598D7E9021212F0E4FEA0E72C
:10153000059806F10C03D6E9021212F0F0FE0446FB
:1015400008B90024E2E70023F3607DE70598D7E9B6
:10155000021212F01BFF044600287FF475AFF0E77B
:10156000059812F056FE0446D0E76FF085046BE74D
:101570002DE9F04F4FF0000907688DB0B7F828A0AB
:101580000DF1280806460D46D2E900214046CDF867
:10159000249000F07EFABAF5C06F1FD12B1D07937F
:1015A0006B6806932B680593F3680493B368039301
:1015B00073690293336901937B6A00937A6807F138
:1015C000140398E8030012F040FF0446002868D096
:1015D000C5F8049020460DB0BDE8F08F40F20163DD
:1015E0009A4517D12B1D07936B6806932B680593BB
:1015F000F3680493B36803937369029333690193A7
:101600007B6A00937A6807F1140398E8030012F0EC
:1016100064FFDAE7AAF2026B1FFA8BF3012B20D8E2
:10162000D5F80090B9F1000F02D16FF08004D1E736
:101630006B68032BF9D9BB6849460520C9F800300F
:1016400009AAFFF795F804460028C3D1BBF1090F9A
:1016500000F29380DFE80BF027345662697A6F3B23
:1016600080510520B96809AAFFF7E4F86FF4C16357
:101670005344022B044603D90028ABD18146E5E749
:10168000D5F80090B9F1000FCFD06B68032BCCD9FF
:10169000BB68C9F800300028D8D040F20B639A45E7
:1016A00098D1002496E77B68099898E8060012F024
:1016B0006BFF04460028F4D04846FFF78DF889E711
:1016C0007B68099898E8060012F06AFFF1E705F1D7
:1016D0000C030293EB6809980193AB680093D5E97A
:1016E000041205F1140312F089FF044608B900241E
:1016F000E2E70023EB606B616CE7099812F035FFBD
:101700000446D9E709982B1DD5E9001213F080F99A
:1017100004460028C5D000236B605BE70998D6E932
:10172000021212F049FF044654E70998D7E9031260
:1017300008F03CF9F7E72B1D01936B6809980093BB
:101740002B68D6E9021208F08BF9E1E70998D6E98F
:10175000021208F057F9E6E7F36809980193B368B5
:101760000093D5E9021205F10C0312F079FF04464B
:101770000028BCD00023EB602CE76FF0850429E73C
:101780006FF0850070476FF08500704700232DE9EA
:10179000F04706688EB0B6F828900DF11408074699
:1017A0000D469246D2E900214046049300F071F9BB
:1017B000B9F5106F0FD12B1D03936B6802932B6843
:1017C0000193FB680093BB68706898E8060013F00B
:1017D0007AF9044626E040F60113994517D12F689F
:1017E000002F74D06B68032B71D9B368394604207D
:1017F0003B6004AAFEF7BCFF044698B971680498E0
:1018000008F060F90446002872D100240AE00420A0
:10181000B16804AAFFF70EF8044638B140F60A137F
:10182000994557D020460EB0BDE8F087A9F60219B9
:10183000B9F1080F6BD8DFE809F0050F14281B5F1A
:10184000222F4D002968002941D06B68042B3ED11E
:10185000049812F0A7FFBCE7316B049812F0ABFFBD
:10186000B7E7718D0498D7E9022313F086F8B0E743
:10187000718D0498D6E90C2308F06AF9A9E7049859
:10188000D5E9001212F0CAFFA3E7718D049898E819
:101890000C0013F07BF89CE72E68C6B16B68032B35
:1018A00015D9B96899B1FA681C2A10D107A811F0A6
:1018B000D3FFDAF8040007A900F0EEF842460499D5
:1018C00007A812F0C1FF059B04463360AAE76FF03A
:1018D0008004A7E72F68002FF9D06B68032BF6D997
:1018E000B3683B60002C90D1049812F0DDFE0446F2
:1018F0003846FEF771FF95E7FB68718D0193BB6871
:101900000498009398E80C0008F054F961E76FF030
:10191000850487E72DE9F0418EB003ACD0F8008054
:1019200006460D461746D2E90021204600F0B1F8E0
:1019300040F20322B8F82830934203D0A3F5027393
:10194000012B0ED8B16811B96FF0800426E0F2685F
:101950001C2AF9D107A811F07FFF786807A900F0C9
:101960009BF8B8F82830A3F50073092B00F28A80A1
:10197000DFE803F02F1824052A414D595E77D6E998
:1019800004122E68002EDFD06B68032BDCD92346AF
:1019900007A807F0BDFE0446039B336020460EB047
:1019A000BDE8F0812E68002ECED06B68032BCBD91A
:1019B000D4E90001224613F0F7F9ECE794E80300BC
:1019C00013F013FA0446E9E794E8030007F064FE15
:1019D000F8E794E8030007AA2E6812F0C9F92B680B
:1019E0000446002BB0D06A681C2AADD8304607A93F
:1019F00011F032FFD2E72B1D0093D5E9002394E8C4
:101A0000030012F007FA044650B90024C6E72B1D64
:101A10000093D5E9002394E8030012F055FAF2E7A9
:101A200000236B60BAE794E8030013F0FFF9C9E7FD
:101A3000002205A811462E6800F02BF82B68002B19
:101A400082D06B68032B7FF67FAF94E8030005AB71
:101A500007AA12F069FA044600289FD1059B33605B
:101A6000D3E72E68002E3FF46FAF6B68032B7FF631
:101A70006BAF214607A813F072F8044600288DD1F9
:101A8000039BECE76FF0850488E7D1E9000108F0DB
:101A9000EFB8C0E90021704788617047F0B585B0A4
:101AA0006C4684E80300002403A816461F460394EE
:101AB00006F0C8FE2146009A039D814202D16FF0D4
:101AC0008B000BE02B4653F8184B944208D10020B2
:101AD0002B693360D5E90223C7E9002305B0F0BDC7
:101AE0001D460131E9E76FF085007047FEF7BCBF86
:101AF0002DE9F04F1546182204468DB00E460DEB29
:101B0000020000219946DDF858809DF864B011F07C
:101B1000C8FE74B3228904F10C07BBF1000F26D173
:101B20002368CDE90432EEB12A463146384611F039
:101B300093FE042205A9781911F08EFE281D0422B7
:101B400004A9384411F088FE04F1200ABBF1000F0B
:101B50002DD00C21504603F01DFC68B14CF2DA2365
:101B6000984206D06FF083000DB0BDE8F08F434679
:101B7000D7E76FF08600F7E70C230B931423099344
:101B80001023029304F12C030193189B4246009307
:101B90004946179B06A8CDE90665CDF828A0089709
:101BA00004F0E4FA0028D9D1C4F8048017E00C232B
:101BB0000B9314230993189B42460293179B4946A3
:101BC0000193102306A8009304F12C03CDE90665C8
:101BD000CDF828A0089704F003FB0028BED1002010
:101BE000C2E708B5036800209B689847002818BF23
:101BF0006FF0910008BD0020704770B504460E4696
:101C00000025E368AB4201D8002070BD606806FB88
:101C1000030023682844DB69984710B9A3681D4472
:101C2000EFE76FF09100F0E72DE9F04F036895B012
:101C300005AA04460E46D3F80C8000F019FC0028D3
:101C40005FD10AA800F016FF014600285CD1DDE94B
:101C5000057A3C2205A8089D11F023FE3146204656
:101C600005AA00F055FD00284BD183468146236824
:101C7000DB8A5B4515D8002D35D12946204602AABE
:101C800000F086FC00283CD12946204602AA00F03C
:101C9000A1FEB0BB204600F086FE78B36FF0830053
:101CA0002FE0B3451CD05946204605AA00F0E0FBC2
:101CB00038BB059BBB420DD10AA800F0DBFE48B93A
:101CC000069B534506D9984528BF98465B1B06934B
:101CD000089B99445946204605AA00F019FD80B991
:101CE0000BF1010BC3E743462A4639462046CDE9AE
:101CF00000A900F0B8F920B9002FCBD1204600F0A0
:101D0000A2FB15B0BDE8F08F6FF08B00F9E770B55E
:101D10000C461646054648B341B33AB3098A012931
:101D200024D9032922D03C22E38A022902FB03F3AF
:101D3000A08AE26807D0904218D80C2002390833F4
:101D400000FB013307E0A2F11401C91A81420DD34F
:101D500090420BD81433934208D818220021284609
:101D600011F09FFD0020C5E9004670BD6FF08600B0
:101D7000FBE737B5054600F0BAFD044658B94FF009
:101D80008071284601AA00F0E5FB38B92846019980
:101D9000FFF74AFF0446204603B030BD10F18C0F18
:101DA00018BF0446F7E700F0C5BC30B591B0144643
:101DB00001AB6A4600F09BFB0546A8B9049B0C22C8
:101DC0006360039B09A92360BDF8143004F120006F
:101DD000A36011F041FD10220CA904F12C0011F0B8
:101DE0003BFD284611B030BD6FF08B05F9E72DE9BA
:101DF000F04399B00DF124080446894615460021A8
:101E00003C2240461F46209E11F04BFD4FF6FF73CB
:101E1000CDE9043325B96FF0860019B0BDE8F08331
:101E2000AB68B3F1807FF6D2236849465A8A6B6863
:101E30002046013B1344524213406B6004AA4346C0
:101E400000F055FB002840F09580D5F808C00499B3
:101E50001CF4003F06D00C9A6B689A427CD10B9020
:101E6000CDF834C005914FF6FF73059A9A4240F0C1
:101E70008A8021686B68898A8B42CCD806A9CDE913
:101E8000028105A90191A9682046009104998A1A46
:101E900018BF0122494600F0DAFB0028BDD1002F0F
:101EA00079D12046099906AA00F094FD00285ED158
:101EB0000C2205F1200111A811F0CEFC102205F131
:101EC0002C0114A811F0C8FC05994246204600F0E8
:101ED0001FFC014600284AD1DDE904539D4228BF7A
:101EE0001D4620462A4600F0EBFC00283FD14FF665
:101EF000FF72049B93420FD0059A93420CD09A42F2
:101F000038BF1A462046691C00F0DAFC78BBDDE9D0
:101F100004539D4238BF1D4623682046DA8A691C57
:101F200000F0CEFC18BB099B002B65D1002F63D0BD
:101F3000204600F088FA00287FF46FAF4FF6FF7359
:101F4000049999423FF469AF059B99423FF465AF0C
:101F50002046FFF769FE60E70D9B424643F0807321
:101F600020460D9300F0D4FB00283FF47CAF6FF0C7
:101F7000830052E710F18C0F7FF44FAFAB68DB03A7
:101F80007FF54BAF6FE72046099906AA00F000FBEA
:101F9000002884D0EBE723685B8A5A1E3242E6D1E0
:101FA00007F1FF3999445B4209EA03090B9B9E4202
:101FB000DDD84A4631460C9800F050FD0028D6D1B5
:101FC000219B4246CDE900932046334606A900F006
:101FD000C0F80028CBD10B9B3E449E420999204675
:101FE00088BF0B96069E00F029FA31460690099AA2
:101FF000204600F08AFB54E7204600F0D4FC00287D
:1020000096D0B4E713B5002301AA044600F06FFA96
:1020100028B920460199FFF707FE02B010BD6FF006
:102020008B00FAE770B592B015461C4602AA03ABC6
:10203000064600F05CFA98B92A462146059800F059
:102040000DFD58B9169B2246009330462B4603A936
:1020500000F05EF8002818BF6FF0830012B070BD6A
:102060006FF08B00FAE72DE9F04786B01646DDE900
:102070000E9703AA054688469A4600F089FA044658
:1020800098B9059B414633442846059300F0D6F99C
:1020900006467FB101464A462846CDE900A7039B84
:1020A00000F0E0FB28B16FF08304204606B0BDE8E5
:1020B000F0870127DDE903324A450AD2A9EB020184
:1020C000CDE900212846314600F0CCFB0028EAD1BA
:1020D000012742462846039900F017FB414628464F
:1020E00003AA039600F076FC044628B14246314626
:1020F000284600F00AFBD8E7B8F1000FD5D0002F32
:10210000D3D06B683146DB68286898470446CCE733
:102110002DE9FF410D461646096801AA04461F46EF
:10212000DDF8288000F034FA70B901994B1C0BD00F
:1021300062686B680A9755684246AC46206833442B
:1021400004B0BDE8F04160476FF0830004B0BDE823
:10215000F0812DE9F3471546DDE90AA90F469846B7
:102160001168044600F06AF96B687A689844A8EB35
:102170000203CDE90023064601463B68204600F0F5
:1021800071FB20BB6368CDF800A0D3F808A04A46D5
:10219000434631462068D047C8B9EB686A68B968D9
:1021A0001A4423682046DB685B1A9B1ACDE900239A
:1021B00031463B6800F056FB48B92B683BB13146CD
:1021C00063682068DB6802B0BDE8F047184702B0DA
:1021D000BDE8F08713B50C2404FB01F341680094BB
:1021E0008C68083341690068A04702B010BD43689D
:1021F00010B5416904461B690068984750B92368C7
:102200001A8A022A06D96268A1681846BDE81040F9
:102210001269104710BD008A022814BF033800203D
:10222000704708B5FFF7F7FF0C233C2200FB033390
:1022300002FB0130083008BD2DE9F04F00240546AF
:102240000F46904626464FF00C0993B0D5F800A0F3
:102250005046FFF7E0FF013086420ED300264FF0D4
:102260003C09D5F800A0BAF816309E421DD30020D4
:1022700088F8004013B0BDE8F08F09FB06F36A68E8
:10228000CDF80090D2F804B039465046083303AA7E
:10229000D8470028EED103AB13F8012B01300C28EE
:1022A00084EA0204F8D10136D0E76B683146504623
:1022B000D3F804B0FFF7B5FF39460346CDF80090D8
:1022C000504603AAD8470028D4D103AB13F8012BFA
:1022D00001303C2884EA0204F8D10136C1E737B561
:1022E000837B01685A1CD2B28273097E04469142F4
:1022F000416904BF02338373012900F10D020DD837
:10230000FFF79AFF40B90822636800929D686169EF
:102310000346A2182068A84703B030BD6FF08600BE
:10232000FAE713B50C46114622790346012A09D172
:10233000036862791B7E9A4214BF00206FF083000D
:1023400002B010BD022A04D11B68A2791B7E9A42FA
:1023500002D16FF08300F3E701290DD80DF10702D8
:10236000FFF76AFF0028EBD162799DF807309A42A7
:1023700018BF6FF09100E3E76FF08600E0E70822F6
:10238000F0B5436887B000925C6800236A44054654
:1023900019460068A0470246002832D000264FF0B8
:1023A000FF3408226B6800925F68012100232868CF
:1023B00004AAB84700283AD10122284604A9FFF709
:1023C000B0FF0346002832D1002E35D02A689DF890
:1023D0001610127E9DF80E00B2FA82F25209914256
:1023E00018D1002914BF022301231B1A18BF01238F
:1023F0001C462C61B4FA84F4002064096C6107B0B7
:10240000F0BD284602A9FFF78CFF04460028C5D17D
:102410000126C6E7904205D1002814BF02220122FE
:102420009142E5D188422CBF00230123E0E7002E32
:10243000DFD16FF08300E2E70124DAE709B94069F0
:1024400070478068704710B50446FFF748FF70B9C1
:1024500063686169DB682068984740B9D4E9042360
:102460002046C4E90432BDE81040FFF7C0BE10BDED
:102470002DE9F3410668054630461446FFF7D1FEC4
:102480003C216A6800910346576830462246296914
:10249000B847064640B92868FFF7BDFE23680130FB
:1024A000834205D36FF09706304602B0BDE8F08155
:1024B00004F1140000F0DEFA0028F5D12D68E76879
:1024C000AB8A9F42EED8A3689F42EBD3D4E9003891
:1024D0002BB92846E98AFFF7A4FE4045E2D83A46E0
:1024E0004146E86800F0BAFA0028DDD0DAE72DE9C5
:1024F000F0430746884691461C46002591B03B684C
:10250000DB8AAB4202D86FF08B061AE029463846C8
:1025100001AAFFF7ADFFD0B90C22414606A812F080
:10252000B5FF064688B9C9F8005054B101AD0FCDCA
:102530000FC40FCD0FC40FCD0FC495E8070084E87A
:102540000700304611B0BDE8F0830135D7E76FF0E2
:102550008306F6E7F0B505460E461746002491B00F
:102560002B68DB8AA34202D86FF08B0009E021467A
:10257000284601AAFFF77CFF38B9059B1E4202D00E
:102580003C6011B0F0BD0134EAE76FF08300F8E77A
:1025900073B506460C2000FB01F3716800904C688F
:1025A0003068316908331546A047044630B93368AE
:1025B00029681A8A914204D36FF09704204602B02A
:1025C00070BDD868D5E9011200F048FA0446002829
:1025D000F2D12B68012B03D83068C18AFFF721FEA6
:1025E0006B688342EAD0E7E7F7B50C2606FB01F3F8
:1025F000416800964F680833016905460068144633
:10260000B847034630B92B6821681A8A914204D32F
:102610006FF09703184603B0F0BDD868D4E90112F3
:1026200000F01CFA03460028F2D12268012A0AD8D9
:102630002A681046FFF7EFFDD18A3C22514300FB88
:1026400006660831881962688242E3D0E0E72DE926
:10265000F04F05468B4691469846002791B0DDE93C
:102660001C6A2868FFF7D7FD0130874202D36FF05C
:102670008D0420E0524639462846FFF789FF04467C
:1026800080BBDAF8082090452AD82B685946DB68C9
:1026900037609B1A73600C22C6F80C8006F1140098
:1026A00011F0DAF81A9BB4603361DAF80830A3EB62
:1026B0000803CAF8083000262B68DB8A9E4205D240
:1026C0003146284601AAFFF7D3FE70B14FF6FF76D8
:1026D0006FF08D0420461B9B1E6011B0BDE8F08F8B
:1026E0000137BEE76FF08304E5E706A800F0C2F902
:1026F00048B1B9F1000F04D0002C18BF6FF08D0461
:10270000E8E74FF001090136D6E702B18160704772
:10271000F7B50668044630461546FFF782FD3C21B2
:10272000626800910346976830462A466169B84757
:1027300003B0F0BDF0B593B00546FFF720FE0028CA
:1027400061D16E696B6831461B69286898470446F9
:10275000002878D1B6FA86F16B6828681B694909A8
:102760009847044600286ED12E680127337EB3FABD
:1027700083F35B09AB73338AC5E90407022B14BFEB
:1027800002230123AB6002232B73F18A3046FFF74B
:1027900048FDF36821461B1A01906A4628460293B9
:1027A0000097FFF717FD044600284CD106462B681A
:1027B0000190DB6802932B681846FFF72CFDB042AE
:1027C00023D8002C4BD12B681846FFF724FDA042DC
:1027D00028D83C22002103A811F063F800242B68BC
:1027E000DB8AA34232D82846FFF779FD48BB6B68E5
:1027F0006969DB6828689847044620BBD5E904234B
:10280000C5E904321FE000269CE7198A6A6802299C
:1028100014BF032100211846314412699047013644
:102820000443C8E71B8A6A46022B14BF0323002314
:1028300023440134214628460093FFF7CBFC0028AF
:10284000C1D06FF08304204613B0F0BD2146284666
:1028500003AAFFF75DFF0028F3D10134BFE76FF053
:102860009104F0E72DE9F04F044688461646994654
:10287000C3B0DDE94CA51DB9284643B0BDE8F08FD3
:10288000B5F5807F2F4628BF4FF4807763680097A7
:10289000D3F804B049465346206802AAD847002816
:1028A000EBD163680097D3F808B0414633462068FF
:1028B00002AAD8470028E0D13E44BA44ED1BDAE72B
:1028C000F7B50768044638461646FFF7AAFC3146B6
:1028D00005463846FFF7A5FC401BCDE900502A46C7
:1028E000204623696169FFF7BDFF03B0F0BD2DE904
:1028F000F041436805461B68006886B09847044667
:1029000028B92846FFF73BFD28B16FF08304204625
:1029100006B0BDE8F08108266B6805F1080700964F
:10292000D3F804803A46234629692868C04700281E
:10293000EBD1394628462A69FFF7F3FC0028E4D199
:102940002846FFF754FC04460028DED12B7B012BE0
:1029500024D1014603AA2846FFF746FE0446002874
:10296000D5D1059B2A68C3F1FF23D26803F57F0305
:10297000F8331344CDE90063324628462B69696970
:10298000FFF770FF04460028C1D16B7B2846AB736C
:1029900002232B73FFF757FD0446B8E7022B18BF3D
:1029A0006FF08304B3E710B586B0002103AA044694
:1029B000FFF7EEFD60B92068049A059BD118C36843
:1029C00020465B1ACDE90023D4E90431FFF74AFF22
:1029D00006B010BDF0B504460D4687B009B943698D
:1029E000136029462046FFF7F5FB0146E0B9D4E91C
:1029F00004769DB90C2205FB02220021206802F119
:102A00000805FFF70EFC401BCDE900503B462A4667
:102A100031462046FFF726FF07B0F0BD204603AA47
:102A2000FFF7B6FD014610B16FF08300F4E72046D2
:102A300003AA0396FFF7CEFB0028F5D1012DD9D0CC
:102A40000C2314226B430C3B019331463B4620463A
:102A50000092FFF707FF0028CCD0DDE7814206D8BF
:102A6000401A90422CBF00206FF0860070476FF034
:102A70008600704700F10C03984202D16FF08B0082
:102A8000704710F8012B002AF6D000207047F0B5EF
:102A900003680446A3F2F233A7B0032B00F21B81B4
:102AA000DFE803F00259A1A40023C269169300F1E4
:102AB0001C03002A38D00421E26A04F12C03002A06
:102AC0003ED004222369042B43D1206A042840D835
:102AD00001293ED1012A3CD10021606806AA05F0F7
:102AE0004BFE042835D1A268069B002A2ADB022B64
:102AF00018462ED8B2F5807F2BD1216A16AA03F092
:102B000004FC30BB0146236A606816AA05F040FE4B
:102B1000002066E00029CFD053F8040D0A460139A1
:102B20000028F7D01146C7E70321F5E7002AC9D0EE
:102B300053F8045D1046013A002DF7D00246C1E774
:102B40000322F5E703F108000228069001D9022BC1
:102B5000D3D9012045E0C26900F11C033AB3042235
:102B6000E16A04F12C0371B304212369042BF0D131
:102B7000012AEED10029ECD1606816AA05F0FCFD0F
:102B80000428E6D1A268169B002A1EDB022B1846F9
:102B9000DFD8B2F5807F1FD0DBE7002AE0D053F802
:102BA000040D1146013A0028F7D00A46D8E703225F
:102BB000F5E70029D9D053F8045D08460139002D06
:102BC000F7D00146D1E70321F5E703F10800022819
:102BD0001690BED9022BBCD803F0CFFB003818BF2B
:102BE000012027B0F0BD02F0CBFD91E700253C228B
:102BF000294607A8CDE90255CDE90455069510F000
:102C000050FE3C22294617A8169510F04AFEE269AC
:102C1000019504F11C0302B30426E26A04F12C03BB
:102C20003AB30425731E012B93D8012D91D80423A8
:102C3000002160680DEB030205F09EFD04281AD008
:102C40006FF08000CDE7002EE7D053F8041D324628
:102C5000013E0029F7D01646DFE70326F5E7002DF1
:102C6000E0D053F8041D2A46013D0029F7D015464F
:102C7000D8E70325F5E7022E22D16669402E27D832
:102C800006AF33463A460121606805F075FD86427D
:102C9000D6D1CDE9027602A9A5B1236A402BCFD8BF
:102CA00016AACDE90423019804AA02F07BFDDDE910
:102CB000042305460021606805F06AFD284690E778
:102CC0000021E9E72A46019802F06CFD0546F5E788
:102CD0006FF0890085E76FF0850082E708B503F0A3
:102CE00012FB002814BF6FF09200002008BDCA0438
:102CF00048BF41F480618B0448BF41F400618160AA
:102D000070470000E31B0300250E0300E10D0300E4
:102D1000F71B0300FB1B0300010000000200000082
:102D2000040000005B4552525D5B43727970746F22
:102D30005D20556E737570706F7274656420726576
:102D40007175657374210D0A004D62656420544CE1
:102D50005320332E362E32004372656174696E67DC
:102D600020616E20656D7074792049545320666C23
:102D7000617368206C61796F75742E0D0A0043725F
:102D8000656174696E6720616E20656D707479206D
:102D9000505320666C617368206C61796F75742E76
:102DA0000D0A00000000000000000000000000000C
:102DB0000000000000000000000000000000000013
:102DC0006FF47A72F0B5474B0446186003688DB013
:102DD0001344042B08D8DFE803F003274867770083
:102DE00003698668082B02D06FF0800559E0856979
:102DF000042DF9D10021406808AA05F0BDFC08287F
:102E0000F2D12B460221606806AA05F0B5FC042821
:102E1000EAD1069B3046019363690093DDE90823FC
:102E200000F006FD05463CE00369082BDCD145694E
:102E3000042DD9D10021406808AA05F09DFC08287E
:102E4000D2D12B460121606805AA05F095FC042823
:102E5000CAD106AB0293236A0193059B0093A06835
:102E6000DDE9082300F0FAFCDCE70369082BBBD19D
:102E7000076A0C2FB8D10021406806AA05F07CFC37
:102E80000828B1D1DDE9062308AE0096A06800F05D
:102E9000F9FC054628B901463B463246606805F014
:102EA00077FC28460DB0F0BD0369082B9CD10021AA
:102EB000406808AA05F060FC082895D1DDE90823E0
:102EC000A06800F0F1FCADE7056A042D8CD100F09C
:102ED000FEFC2B4608900021606808AA05F058FC0B
:102EE0000025DEE7101D002038B5074B02461D689F
:102EF0000C460B466868012105F03EFC844214BF75
:102F00006FF08000002038BD101D00200B460549E1
:102F100010B40C680246002160685DF8044B05F0AF
:102F200037BC00BF101D002008B50749074810F046
:102F300042FD00F00DF830B100F0D7FC18B9BDE843
:102F4000084000F005B808BD00015005B83A03007C
:102F500010B5044C204600F0C7F9034B383C5C60C8
:102F600010BD00BF680C0020141D00202DE9F047A3
:102F7000DFF864A01F46534681468846164600F097
:102F8000DDFA044600BB134DDAF800002946C5E916
:102F90000498AE6100F0D8FC044678B9AE6ABE422F
:102FA00015D3089BF61B9E4228BF1E4605F138002C
:102FB00031463844FFF7AAFF099B1E6040F64802DD
:102FC0000021044810F06DFC2046BDE8F0876FF04A
:102FD0008604F3E7300C0020141D00202DE9F74F84
:102FE000DDF830A08046BAF5006F0F4691469B464B
:102FF00068D8364E334600F0A1FA0446002843D183
:10300000334D30682946C5E90487C5F8189000F0AB
:103010009BFC044670BB2B6BDB0750D40123C5E936
:103020000BABD6F800B051462A480193FFF75CFF7E
:103030000446F8B9019B264D18462449C5F828A036
:1030400000F0F4F90446A8B929463068C5E90487B8
:10305000C5F8189000F0BBFC044658B94A464046F3
:1030600039461A4B00F014FA0446E8B100213068E2
:103070000AF020FB40F648020021154810F011FC30
:10308000204603B0BDE8F08F10F18C0FF2D1104C48
:1030900040F648020021204610F003FCC4E90BABC7
:1030A00002234FF0000BBEE7BBF1000F03D100F08D
:1030B00081FA0446DEE7584600F00BFCF9E76FF0B2
:1030C0008404D7E76FF08604DAE700BF141D002000
:1030D000300C0020680C00202DE9F047DFF84CA0F0
:1030E0001E46534681468846174600F027FA044696
:1030F000B0B90D4DDAF800002946C5E90498AF6172
:1031000000F022FC044628B9AB6A7360EB6A3360B6
:103110002B6BB36040F648020021034810F0C1FB5E
:103120002046BDE8F08700BF300C0020141D0020B1
:103130002DE9F843DFF86480074643460E46914682
:1031400000F0FCF9044600BB134DD8F800002946F6
:10315000C5E90476C5F8189000F0F6FB044670B98E
:103160002B6BDB0714D44A463846314600F0FCF995
:10317000044620B9D8F8000000F0ABFB044640F646
:1031800048020021044810F08CFB2046BDE8F8837B
:103190006FF08404F3E700BF300C0020141D002002
:1031A000F0B500250A4CD4E910768E4208BF87425C
:1031B00005D1A66C964202D100201D60F0BD0135FC
:1031C0000B2D04F12004EED16FF08B00F6E700BF69
:1031D00078140020002070B5DEB0029000F050FCA2
:1031E000044618BB02A900F040FC0446F0B91021C7
:1031F000314800F0E9F90446C0B9304D029E284636
:1032000000F040FA044678B94FF4B47205F1280191
:1032100003A85D9610F020FB4FF4B672284603A970
:1032200000F0BEFA044620B100F018FA20465EB065
:1032300070BD00F013FA04460028F7D195F89161AB
:103240002B4600904FF4C8720021701C0AF0D4F98C
:1032500004460028EAD195F89031039003A9012093
:1032600085F8913185F89061029D00F0FEFB58B120
:103270006FF08304DAE7012000F002FC0446002826
:10328000D4D1039B01330393039B9D42F3D80220C7
:1032900003A900F0EAFB0028EAD1039B9D4201D874
:1032A0000024C3E7022000F0EBFB04460028BDD158
:1032B000039B01330393F0E7200C002078140020D7
:1032C00010B5084C4FF4CC722046002110F0E9FAFA
:1032D0000123A4F8903184F82830BDE81040FFF7AE
:1032E00079BF00BF78140020002270B54D4D88B022
:1032F00002AE04904FF4C87301200021CDE90056BE
:10330000CDE906220395ADF814200AF093F910B127
:1033100001238DF81430049B0022009302204FF407
:10332000C873002101960AF085F910B101238DF8C8
:10333000153000F007FB044678BB10213A4800F036
:1033400043F9044648BB06A900F08FFB044638BB8E
:103350003146012000F089FB044608BB022007A982
:1033600000F083FB0446D8B9079A029B9A429DF865
:10337000143018BF0790012B03D0002003A900F0E0
:10338000B6FA9DF81530012B03D0012003A900F0F7
:10339000AEFA00F063F9044628B1204608B070BDCB
:1033A00000F05CF9F9E7039B049993F82830012BAE
:1033B0001CBF01238DF8143091F82830012B1CBF5D
:1033C00001238DF8153040F20113BDF814209A4204
:1033D00023D09DF81430012B07D14FF4C872114847
:1033E000A5F8903110F038FA07E09DF81530022B5F
:1033F00011D04FF48073A5F8903195F89101002118
:1034000001300AF057F910B110F18C0F08D10548BE
:1034100000F030F9C1E70123DFE76FF08304BCE778
:103420000446BAE778140020200C002070B50D4641
:1034300048B300231C46154AD2E91016314304F163
:10344000010106D00B2919D01C46203223460C4618
:10345000F2E70B2900F1FF300FD020320028F5D120
:103460002346DC1C204600210AF024F910B110F19B
:103470008C0F01D100202C6070BD0A230028F0D0F1
:103480006FF08D00F8E76FF08600F5E77814002004
:103490002DE9F0471E4600238146884617468AB02C
:1034A000244D02AC01930FCD0FC495E80F0084E8C2
:1034B0000F003A464846414601ABFFF771FE1E4DEC
:1034C000824668B9019C202205EB44143034214621
:1034D00002A810F0C1F920225146204610F0E1F96F
:1034E00033687168DC1E05EB431343E9089805EB6C
:1034F00044131C463034102220469F6410F0ACF96F
:10350000FFF768FE064688B1DDE90632134308D0AE
:10351000019B202205EB431502A905F1300010F0B4
:103520009BF920220021204610F0BBF930460AB05A
:10353000BDE8F087983A03007814002037B51D469F
:1035400001ABFFF72DFE044648B9019B0549DA1C83
:103550002A606868102201EB431110F07DF92046C3
:1035600003B030BDA8140020002330B58BB0019308
:1035700001ABFFF715FE0446B0B9019B0C4D2022AC
:1035800005EB4315294602A810F066F921462022D2
:10359000284610F086F9FFF71DFE044620B12022D0
:1035A000284602A910F058F920460BB030BD00BFE4
:1035B000A8140020034B002193F8910101300AF078
:1035C00079B800BF7814002030B589B004460D46A4
:1035D0001C22002101A810F064F90023009385B398
:1035E0007CB34FF44072184B6846CDE90323174B68
:1035F0001749019309F08CFF08BB40F2011168469E
:10360000144A09F03FFFA8B92B46224640F2032195
:10361000684609F0A1FF68B90F4C6946224601A827
:1036200009F0C2FF30B9684609F050FF38B1206890
:1036300009F06EFE684609F049FF6FF0830009B09B
:1036400030BD6FF08600FAE70001500500248000CD
:10365000090100085C81FF7F1C1D002008B5044B98
:10366000186809F055FE002818BF6FF0830008BDE8
:103670001C1D002000F11C010C22014810F0ECB8C8
:10368000201D00201FB50822184904460DEB02003A
:1036900010F0E2F8042216490DEB020010F0DCF8FD
:1036A000029B039A013342F10002CDE90232134337
:1036B00014D008220D480DEB020110F0CDF80422C1
:1036C0000B480DEB020110F0C7F80C22074904F17A
:1036D0001C0010F0C1F8002004B010BD019B0133A4
:1036E0000193002BE5D16FF08300F5E7201D00204A
:1036F000281D0020F0B5054689B010980F9FCDE930
:103700000012CDE904700E98119ECDE902300C48EC
:1037100006960C230B49006805F11C0209F016FE01
:10372000044650B9316810221039316028463944B6
:1037300010F092F8204609B0F0BD6FF08304F9E76D
:103740001C1D0020000150052DE9F0411D460F46CB
:103750009046044688B00E9E01461022981910F03B
:103760007BF8119B10360693109BCDE9025605930A
:10377000CDE900780F9B0848049308490C2304F115
:103780001C02006809F030FE002818BF6FF094009A
:1037900008B0BDE8F08100BF1C1D002000015005ED
:1037A00000B58BB009AB06931023CDE904030023C9
:1037B000CDE90012CDE9023300F11C0208480C23C8
:1037C0000849006809F0C2FD38B9099B102B18BFE1
:1037D0006FF083000BB05DF804FB6FF08300F9E736
:1037E0001C1D00200001500500B58BB009AB0693ED
:1037F0000023CDE904331023CDE90012CDE9020303
:1038000000F11C0207480C230749006809F0ECFD91
:10381000099B184314BF6FF0940000200BB05DF8B3
:1038200004FB00BF1C1D002000015005FFF77CBBFE
:1038300030B4194604461046DDE9022350EA01057A
:1038400005D0072B07D8224630BCFFF7C7BB6FF067
:10385000860030BC70476FF08500FAE770B41946F7
:1038600004461046DDE9033250EA0106059D05D005
:10387000CDE90325224670BCFFF778BB6FF08600C8
:1038800070BC7047194610B40446104650EA010255
:10389000019B04D022465DF8044BFFF71DBC6FF07E
:1038A00086005DF8044B7047194652EA010310B5D3
:1038B0000446104608D02246FFF73AFC10F1950F57
:1038C00008BF6FF0830010BD6FF08600FBE700209B
:1038D000704710B50446FFF76DFE014620B920463B
:1038E000BDE8104009F0E6BE10BDFFF7E9BC70B5B9
:1038F00051F82060DCB0CB684FF4B47205460C463A
:1039000001A806F128015B930FF0A6FF4FF4B672F1
:10391000304601A9FFF768FF80B1236983B14FF4F6
:10392000B672304601A95B93FFF75EFF00280CBF1B
:10393000032301232C4423725CB070BD0223F9E7FA
:103940000123F7E700207047002270B58EB005AB69
:10395000019301F11C030C460093114640F61C0331
:10396000064609F067FE68BBD4E90423CDE90823C5
:10397000A3690422069607A90BA808AE0793059D24
:103980000FF06AFF314608220CA80FF065FF0C21EA
:103990000BA8FFF719FEA8B94FF402620C3D04F121
:1039A0002803CDE90132204604220396009506A99A
:1039B000FFF7CAFE10B9089B9D4205D0FFF74EFEE7
:1039C0006FF083000EB070BDFFF748FEFAE72DE9F7
:1039D000F041D1E904238CB0CDE906238B690422A0
:1039E0008E6A049005460C4609A805A906AF059302
:1039F0000FF032FF082239460AA80FF02DFF0C21E4
:103A000009A8FFF7E1FD0146E0B92046FFF73AFEBD
:103A10000146B8B94FF4026206F1100804F1280318
:103A2000CDE90132204604220397CDF8008004A995
:103A3000FFF760FE10B9069B984507D0FFF70EFE12
:103A40006FF0830108460CB0BDE8F081FFF706FE79
:103A500001460028F6D1009004F11C03284606F127
:103A60001C0209F0C9FD0146ECE70A4608B504212D
:103A700009F04EFE002814BF6FF08300002008BD3F
:103A800008B509F02DFE002814BF6FF08300002058
:103A900008BD000000000000000000000000000061
:103AA0000000000000000000000000000000000016
:103AB00000000000000000005B494E465D5B505373
:103AC0005D20456E6372797074696F6E20616C67FA
:103AD0003A20307825780D0A000000000000000030
:103AE000204B000001000000E1850300B9850300C0
:103AF000887C040020A600204F000000507C0400B9
:103B0000401D00200E000000407C0400200C00201E
:103B1000040000005CA7002032070000781D002090
:103B20002A220000300C002044040000000C002079
:103B30000800000003F0CABD08B572B6002383F385
:103B40001488BFF36F8F83F30A8883F30B88BFF366
:103B50005F8F254B5A6A22F480325A62D3F8942040
:103B600022F00102C3F89420BFF34F8FBFF36F8F91
:103B70001E4A9A6000F058F81D4B83F309881D4BCC
:103B800083F30A8883F30B881B4B15A1D1E900014D
:103B9000C3E9000100F0EEF8184B19498B4212D32B
:103BA0000020184B18498B4218D304F02DFD1868DB
:103BB00050F82240586840F822400132986882420A
:103BC000F5D30C33EAE70022F8E71C6844F822003A
:103BD00001325C68A242F8D30833E4E70022F8E738
:103BE000A5EDF5FEA5EDF5FE00ED00E000020300F9
:103BF000F80B002000040020F80B0020F03A03002E
:103C0000143B0300143B0300343B0300EFF3088034
:103C1000EFF309812DE9F00F6B46724600F0A0F931
:103C200008B0FFF787FFFEE738B572B6002383F3CD
:103C3000138883F311884FF0FF30274A03F12001E6
:103C40000133102B42F82100F8D100234FF0FF344C
:103C5000214A03F160010133102B42F82140F8D1D1
:103C6000012200251D4B29465A60C3F84843C3F87A
:103C7000084303F580535A60C3F84843C3F8084328
:103C8000A3F55043C3F800558022C3F808431448F5
:103C90000FF007FE2946802212480FF002FE124B59
:103CA0002946C3F800558022C3F808430F480FF097
:103CB000F8FD802229460E480FF0F3FD0D4BC3F8A6
:103CC00008454FF05023C3F8084362B6BFF34F8F47
:103CD000BFF36F8F38BD00BF00E100E0004001502E
:103CE00080800050808100500090005080900050F3
:103CF000809100500070015008B5EFF31083012B44
:103D00000C4A07D1126ABFF34F8F511C4A424A41F5
:103D1000104608BD02F05EF800B172B6126ABFF339
:103D20004F8F531C5A425A4102F054F80028EFD0EA
:103D300062B6EDE70080FF0008B5EFF31083012BBA
:103D40000B4A06D1D269BFF34F8F02F00102104631
:103D500008BD02F03FF800B172B6D269BFF34F8FD1
:103D600002F0010202F036F80028F0D062B6EEE769
:103D70000080FF006F4A10B5D2F8D03043F0020344
:103D8000C2F8D03002F026F830B14FF050230022B4
:103D9000C3F81421C3F8182102F02BF828B101222E
:103DA000654BC3F8382AC3F878254FF47F02D2F860
:103DB0003031D2F83421BFF34F8FC3F30B03092BFB
:103DC00005D1012A1EBF01225B4BC3F8782502F002
:103DD00010F818B10E22594BC3F8E42E01F0FAFF87
:103DE00030B10022544BC3F80C270122C3F810272E
:103DF0000022D30003F57F03D3F80013BFF34F8FE6
:103E0000013108D0D3F800130132D3F80433B2F5EE
:103E1000807F0B60EDD1EFF31084FFF78DFF00285A
:103E20004DD0BFF34F8F464BD3F80024012AFBD16E
:103E3000C3F80425D3F80024012AFBD1012C03D0B8
:103E400001F0C8FF00B172B6FFF776FF58B13D4AE6
:103E5000D36923F00103D361BFF34F8F384AD2F8FF
:103E60000034012BFBD1FFF747FF68B1354A136AD5
:103E700023F0FF0343F020031362BFF34F8F304A58
:103E8000D2F80034012BFBD1012C03D001F0A2FFAA
:103E900000B162B600222A4BC3F80425D3F80024EF
:103EA000012AFBD1BFF34F8F2249274BCA6802F486
:103EB000E0621343CB60BFF34F8F00BFFDE7FFF716
:103EC0001BFF0028ADD11B4AD2F88C3043F440636D
:103ED000C2F88C304FF47F03D3F83021D3F834315B
:103EE000BFF34F8FC2F30B02092A16D1013B022BFD
:103EF00002D8164AD35C83B1124815490368104AA8
:103F00008B420CBF5A230023C2F8103EC36A8B4277
:103F10000CBF5A230023C2F8003E064AD2F888306C
:103F200043F47003C2F88830BFF34F8FBFF36F8F35
:103F300010BD00BF00ED00E00040005000A00350A5
:103F4000009003500080FF000400FA05227E030069
:103F5000FA50FA507C2201490FF07EBCFCAC0020E4
:103F600038B51D46384B394C5B68C3F308032360F2
:103F7000EFF3038363655306C4E90120E16039D59B
:103F800002F00C020C2A08BF0846014620612022DC
:103F90002F480FF061FC25B1202229462D480FF053
:103FA0005BFC294B9A6AA265D96AE165986B206629
:103FB00002F400406066586BA06602F08000E06684
:103FC0009A62D962D3F8E42023482267D3F8E81034
:103FD000616702F04001A167C3F8E4200E2101F0FF
:103FE0001AFF2268D31E042B22D8DFE803F00F1536
:103FF000181B1E00EFF39483990704D5130702D50D
:10400000EFF38980C1E7EFF38880BEE70C21134806
:10401000BDE8384001F0FFBE12211148F8E70B213E
:104020001048F5E70D211048F2E70E210F48EFE7A1
:104030000F2A98BF1421BDE8384089BF25210C48BC
:104040000C48103A02F03CBA00ED00E0FCAC002055
:1040500010AD002030AD0020257E0300337E03002C
:104060003F7E0300517E03005C7E0300697E0300F7
:10407000777E03008B7E03002DE9F34106460F4651
:104080000C4DD5F82C80C04710F00104FBD1394607
:1040900030466B69984740B9C047C307FCD42B6AC8
:1040A000019302B0BDE8F0411847204602B0BDE8D8
:1040B000F08100BFB07E030010B5094C0020A3685A
:1040C0009847236902209847A46A06490120A0471F
:1040D00001211520A0470122034B1A6010BD00BF2B
:1040E000B07E030040420F0078AD0020064B82B046
:1040F0001868002382B262F30F03000C60F31F43C1
:10410000184602B0704700BFF07E0300014B1869EB
:10411000704700BF20A60020014B5869704700BFC0
:1041200020A6002010B5044C204600F009FF002016
:1041300084F8200010BD00BF20A6002038B50C4D2B
:104140000C4695F8203013B94FF0FF3038BD0A46C1
:104150000146284600F086FF064B984205D00B3BEF
:104160009842F1D100206C61F0E76FF00100EDE7BB
:1041700020A600200B00AD0BF0B51B4E054696F8AF
:1041800020300C4691B01BB94FF0FF3011B0F0BD9C
:1041900000F06043B3F1005F21D100230A460146DD
:1041A000304600F0EFFB114B98421AD00B3B98427F
:1041B000EAD1346111E0A71B402F28BF4027A9197D
:1041C0003A4668460FF048FB39466846FFF7D4FF89
:1041D0000028DBD14036B442EDD80020D6E70026D7
:1041E000F9E76FF00100D1E720A600200B00AD0B2E
:1041F000C3B2012B10B540F096804DF6C023994212
:1042000070D028D8B1F5615F6FD011D8B1F5965F45
:104210006DD008D8B1F5966F6BD0B1F5166F6BD035
:104220006FF007005DE0B1F5165FF9D1454B33E063
:1042300047F61223994262D007D8B1F5964F61D064
:10424000B1F5E14FECD1404B26E0B1F5164FE7D187
:104250004FF41D0320E03D4B994255D011D8B1F5E4
:10426000E13F54D007D8B1F5614F53D0B1F5963F37
:10427000D6D1374B10E0B1F5613FD1D14FF06C731F
:104280000AE0B1F5612F48D0324B994248D0B1F5E0
:10429000E12FC5D14FF0E86310F4E06F46D110F480
:1042A000404103D0B1F5804F43D1102110F440526A
:1042B00003D0B2F5805F3FD10E2210F4403003D01E
:1042C000B0F5403F3BD10120234C20766276E3617C
:1042D000A1760A4324681043C4F82435C4F86C0559
:1042E000002010BD4FF46503D6E71C4BD4E71C4BF0
:1042F000D2E74FF49E23CFE74FF41D23CCE74FF4D2
:104300000003C9E7174BC7E74FF08063C4E74FF0DE
:10431000EB73C1E74FF46B03BEE74FF07063BBE78D
:104320004FF08053B8E76FF00300DAE76FF0080052
:10433000D7E76FF00A00D4E76FF00900D1E76FF01C
:104340000B00CEE70050270000C0750090D003009E
:1043500000903A0140420F0020A6002000F03A00F1
:1043600000B0130000A04E0010B58EB02422002132
:1043700005A80FF096FA4FF0FF33CDE90133CDE9F0
:1043800003334FF0EB730B930723104C01A8D4E9D0
:1043900002128DF8363001F05CFD01460022204605
:1043A00000F03AFA0A4B98420DD10C9B002023836F
:1043B0001B0CA3760B9BC4E90400E361012384F882
:1043C00020300EB010BD6FF00100FAE720A60020EB
:1043D0000000AD0B7FB500250C46C0F8085116460D
:1043E000D0F80821D0F8002222F02002C0F80022E4
:1043F000104AC0F8082301F07CFDA560256104F196
:104400004C03D3E8EF1F21F47F0121F47041C3E88E
:10441000E21F002AF5D11022294668460FF041FA22
:10442000042368468DF800300196D4E900139847BC
:1044300004B070BD10020A0000F01F03400909D14A
:10444000074A02EB8303D3F80012064A0A40C3F876
:10445000002270470022803352F82330FFDE00BF75
:1044600000258450F0F8FCFF2DE9F04F804690F8CD
:1044700004A05020664F0E4600FB0A70416885B0CC
:1044800049B113F0020304D0836B002B00F0B2801B
:104490000123009300E000914FF0500909FB0A73DB
:1044A000DB6CD90600F1A6804FF0010BB318029324
:1044B000029BB34200F0A78006F06043039398F894
:1044C0000450D8F8004009FB05739A6B9AB9039B16
:1044D000B3F1005F40F09980019200F005FE09FB06
:1044E0000572D16C204601F0010101F0D0FC28B921
:1044F00000F002FEE3E701230193EEE7516C33463F
:104500000029BCBFD4F84C155164019A42B109FB93
:1045100005713078D1E90E23D054D1E90E3213441D
:104520001BB1C4F84435C4F848B50022C4F82021B2
:10453000D4F82011C4F85821D4F85811C4F85021E7
:10454000D4F850210822C4F80025009AE2B14FF4B3
:104550008003C4F80433C4F808B000F0CDFD502344
:1045600003FB0A72516800294BD1D26C120748D55F
:1045700003FB0A734C33D3E8EF1F21F00801C3E8B3
:10458000E21F002A36D0F6E7C4F808B0019300F025
:10459000B3FD09FB0572D16C019B01F001012046BE
:1045A000019301F074FC8446019BD4F84C05D4F8C7
:1045B0004425BCF1000F0DD19342F0D005EB8505E9
:1045C00007EB0515D1B100F08FFD2946204601F01B
:1045D000A2FCC2E705EB8505934207EB0515F1D177
:1045E0000028EFD100F080FD2946204601F093FC21
:1045F00000F082FD074805B0BDE8F08FC4F80CB0AC
:10460000E1E7013654E70448F5E70448F3E700BF63
:104610007CAD00200800AD0B0000AD0B0400AD0B1D
:10462000430904D10123034A834093607047002368
:104630009B60FFDE0025845000F01F0340090BD172
:10464000084A02EB8302D2F80012074B0B4043F0FA
:104650000303C2F8003270470022803352F823303F
:10466000FFDE00BF00258450F0F8FCFF2DE9F84381
:1046700091F8303005460C4690F804800F6853BB23
:104680005023DFF85091781C03FB0893DE6C46F052
:104690000072DA6404D03846FFF7C2FFFFF7CCFFA0
:1046A0006068411C01D0FFF7C7FE94F82C30012B45
:1046B00011D1502303FB0893E06846F02066421CAA
:1046C000DE6401D0FFF7B8FEA068431C03D0FFF7FB
:1046D000A7FFFFF7B1FF94F82F0038B950223D4BE8
:1046E00002FB0833DA6C42F08072DA6494F82CC072
:1046F00094F82D1094F82EE0A26A2B6841EA0C0180
:10470000E668D4E90198C3F824254EEA0102C3F80B
:104710006C2550B9BCF1010FC3F80C75C3F81495A2
:1047200004BFC3F80885C3F81065D3F8682503F201
:104730006458012A08BFDA60D3F86425012A13D12E
:10474000082149F64046244FC3F8001547F00107F9
:104750005A60D8F800309BBB2B68D3F88024C3F88C
:1047600080240022C3F8002500212B6894F8322011
:10477000C3F81011D3F81001C3F82011D3F82001A9
:10478000C3F82411D3F82401C3F84411D3F8440129
:10479000C3F85811D3F8581143F307335201002BD3
:1047A000D2B212DB0D49C81880F800230122580943
:1047B00003F01F0302FA03F341F82030BDE8F88349
:1047C0004020B847013EC4D1C6E7054903F00F03B6
:1047D000CA54F3E77CAD0020007F030000E100E055
:1047E00014ED00E000F01F0340090BD1084A02EB72
:1047F0008302D2F80012074B0B4043F00203C2F8C9
:10480000003270470022803352F82330FFDE00BFB1
:1048100000258450F0F8FCFF2DE9F3479046502224
:1048200090F80490514C02FB09FA04EB0A070D467C
:1048300097F848100646002940F0858009EB89006A
:1048400004EB00100FF02DF82B69AA6944F80A3028
:104850006B69BB6302B1013A502303FB0943DA637E
:104860002A6A042A81BFEA699A610022DA6195F80E
:104870003130B8F1000F37D083F001073F0233B178
:10488000502303FB0943DA6C42F00102DA6450233F
:1048900003FB09440123C4F8048084F848303468D9
:1048A000D4F84C2112BB29463046FFF7DFFE082220
:1048B000002334688DF80730C4F800250DF1070295
:1048C000C4F84425C4F8483501230A25A360E360F1
:1048D000D4F85831002B38D1254B402043F0010348
:1048E0009847013DF4D128E04746C8E708224FF039
:1048F0006409C4F8002563601D4B43F0010AD4F835
:104900004431F3B9D4F82431DBB94FF42070D047E7
:10491000B9F10109F3D14B460022C4F84C21D4F877
:104920004C11C4F81021D4F81011C4F84421D4F863
:104930004411C4F80025002BB5D10E4802B0BDE8E3
:10494000F0870123E8E70C48F8E70023C4F820319A
:104950009845D4F82021C4F80035084B08BF00233F
:104960001F4333680648C3F80473E7E77CAD0020B3
:10497000007F03000100AD0B0C00AD0B10020A001C
:104980000000AD0B2DE9F04784460F469E461646C3
:104990000579002A51D04FF0500ADFF8BC80D0F8DA
:1049A00000900AFB058ADAF8044074B96BB9DAF8AA
:1049B0002C50002D43D1CAF82C20FFF755FD04469A
:1049C000CAF82C502046BDE8F0871EF0030F07D030
:1049D000734632463946BDE8F0476046FFF744BDAE
:1049E00007F06043B3F1005F4FF0500414D104FBB3
:1049F000058400F079FBE26A1AB1134C00F07CFBED
:104A0000E0E7C4E90A7605EB8505484608EB0511A1
:104A100001F08CFA0D4CF1E704FB0584A36B83B124
:104A200000F062FBE36A002BE7D1E36C012243F064
:104A30000203C4E90A76E364E5E7054CC2E7024CE9
:104A4000C0E7044CBEE700BF0B00AD0B0000AD0B90
:104A50000600AD0B0A00AD0B7CAD00202DE9F8433C
:104A600050230679284D046803FB0653D4F80473D9
:104A7000DA6AC4F8087322B92448C4F80473BDE89C
:104A8000F88306EB860005F14C024FEA001802EBB2
:104A90000012D2E8EFCF4CF0080CC2E8E0CF0028BB
:104AA000F7D10122E26031B3D96C01EA020949462B
:104AB000204601F0ECF90028FAD000F015FBB9F11E
:104AC000000F1CD1D4F8203153B10123E360D4F896
:104AD0005831002BFBD0204605EB080101F01BFAF2
:104AE00000F00AFB0023C4F82031D4F82021502222
:104AF00002FB0655EB620648C4F80473BFE7D4F81E
:104B00005831002BE7D1EBE77CAD00200500AD0B61
:104B10000000AD0B2DE9F84390F804804A4E08EBF5
:104B200088073F0107F14C0504683544D5E8EF3F9D
:104B300043F48052C5E8E02F0028F7D1DA047FD48F
:104B40004B0705D5502303FB08639B69002B79D0E5
:104B50003E4B3744C4F808330823C4F8003500231B
:104B6000C4F81031D4F81021C4F84C31D4F84C21D9
:104B7000C4F844310A03D4F844318B0303F480436E
:104B800002F400524903134301F400410B43D5E8FA
:104B9000EF2F1A43C5E8E12F0029F8D14FF0500953
:104BA00009FB0869D9F80830EBB9D9F8043093B992
:104BB000502303FB0863DB6CD8043FD5D5E8EF3FF7
:104BC00023F47F0323F47043C5E8E23F002AF5D1C4
:104BD0001F48BDE8F8830321384601F065F9D9F88C
:104BE0000830002BE4D0D4F80433590713D55023F0
:104BF00003FB08635A6872B1DB6C1A030BD5D5E866
:104C0000EF3F23F40023C5E8E23F002AF7D1062155
:104C1000384601F049F9502303FB0863DB6CDB04E1
:104C20000CD5D4F84C310BB901232360502303FB7E
:104C30000866736813B1054BC4F804330548C8E728
:104C40000548C6E70548C4E77CAD002010020A000D
:104C50000200AD0B0000AD0B0B00AD0B0800AD0B5F
:104C60002DE9F84F502390F804905B4E046803FB45
:104C700009631746DA6CD4F804A350038846C4F8D5
:104C800008A300F1A38001F06041B1F1005F40F0A2
:104C90009F80996859B15B68002B40F08380D4F8FD
:104CA000101100297ED0C4F81031D4F810315025ED
:104CB00005FB0965EA6909EB890BC5E902874FEA3B
:104CC0000B1B002A49D0974235D84FF000093A46CD
:104CD000A9694046C5E902990EF0BEFDEA69A869D6
:104CE000D21BC119EA610EF081FD6B6823B93B4804
:104CF000C4F804A3BDE8F88FEB6C5E44990414D5A6
:104D0000374B5B44D3E8EF1F41F48021C3E8E21F37
:104D1000002AF7D13A464146304601F0D6F84A46D5
:104D200031462046FFF756FBE1E73A46414630461A
:104D300001F0CBF8DBE74046A9690EF08DFDEB6989
:104D40006B620023EB61264B5B44D3E8EF1F41F419
:104D50000021C3E8E21F002AF7D1502303FB0963B7
:104D6000586ADA689968DB6C121A0144C4F8341581
:104D7000C4F83825DA04BAD5194B5B44D3E8EF1FE1
:104D800021F48021C3E8E21F002AF7D10123236028
:104D9000D4F84431002BAAD00023C4F84431D4F80D
:104DA0004431A4E7502303FB0966336993B95304E4
:104DB000C4F83485C6E90487C4F8387597D5D4F8A3
:104DC000003243F02003C4F8003290E705488FE733
:104DD00005488DE705488BE77CAD00200000AD0B52
:104DE000C8AD00200500AD0B0A00AD0B0B00AD0BEC
:104DF00050232DE9F0414E4D90F80480046803FBE8
:104E00000853D86CD4F8007200F48220B0F5805FAB
:104E100005D009B10022DA614648BDE8F081D4F836
:104E20000463C4F8086309B9BB0652D44FF4A11156
:104E3000D4F8003223F02003C4F80032502303FBDF
:104E400008574C37D7E8EF0F0843C7E8EC0FBCF121
:104E5000000FF7D122B903FB08535B68002B63D125
:104E6000354BC4F8083301236360D4F84431002B78
:104E7000FBD00023C4F84C31D4F84C21C4F81031D5
:104E8000D4F81021C4F84431D4F84421502202FB54
:104E90000852D16C11F400411ED1D161204601F0BD
:104EA00028F8502303FB08550023AB602B61D7E89B
:104EB000EF3F23F47F0323F47043C7E8E23F002A67
:104EC000F5D126F4202626F404761C48C4F80463A1
:104ED000A3E74FF48031B1E79269C4F84C31D4F8BC
:104EE0004C11C4F834250522C4F83825C4F8103113
:104EF000D4F810310123E362D4F81031002BFBD039
:104F00000023C4F81031D4F81031D4F84C210AB180
:104F1000D4F83C25502303FB0853DA610023C4F87E
:104F20004C31D4F84C31B9E701236360CDE700BFC1
:104F30007CAD00200500AD0B10020A000000AD0B97
:104F40002DE9F8432F4A03680679C3F8082343F391
:104F50000733002B04460DDB01215A0903F01F0320
:104F6000994002F12003284A42F82310BFF34F8FE3
:104F7000BFF36F8F012220461146FFF739FF012151
:104F80002046FFF76BFD50212279204D236801FB5D
:104F90000252D46CD3F80C05E201D3F81495D3F87F
:104FA0000875D3F8108509D54FF0FF32C3F80C25EA
:104FB000C3F81425C3F80825C3F81025A30116D596
:104FC000411C01D0FFF70EFCB9F1FF3F02D048466B
:104FD000FFF708FC22010AD5B8F1FF3F02D0404696
:104FE000FFF700FC7B1C02D03846FFF7FBFB502389
:104FF000002203FB0653DA6483F848205A60BDE8B8
:10500000F88300BF10034A0000E100E07CAD0020FF
:1050100010B5502402790E4B04FB02335B689BB938
:105020000368D3F80025082A05D011B1D3F83C3520
:105030000B60084810BDD3F810213AB111B1D3F874
:105040003C350B600448F5E70448F3E70448F1E712
:105050007CAD00200C00AD0B0000AD0B0800AD0BCB
:105060000B00AD0B2DE9F34105461646FFF7F8FDA1
:10507000184B0446984226D10321284695F804800F
:10508000FFF748FD144FB84201D0A0421FD1502273
:10509000124B02FB08335B68ABB90193284601A9A8
:1050A000FFF7B6FFB842F9D00D4B98420AD0019BEA
:1050B000B34207D301222846114602B0BDE8F041B1
:1050C000FFF796BE074C204602B0BDE8F0810446CB
:1050D000F9E700BF0000AD0B0B00AD0B7CAD00206D
:1050E0000C00AD0B0800AD0B72B6024A1368013319
:1050F00013607047CCAD0020034A1368013B136076
:1051000003B962B6704700BFCCAD002000487047BD
:10511000347F030008B500F01FF8034B984214BF1A
:105120006FF00400002008BD0000AD0B0022034B0F
:10513000C3F88425C3F80425704700BF00900350CE
:10514000044AD2F80834DB07FBD50160BFF35F8F58
:10515000704700BF0090035008B5C0F30B0383B93C
:105160000222094BC3F88425C3F804254FF0FF320F
:105170000260D3F80024D207FBD5FFF7D7FF03481E
:1051800008BD0348FCE700BF009003500000AD0BD2
:105190000A00AD0BF8B51546012206460F4600245D
:1051A000094BC3F88425C3F80425A54203D1BDE803
:1051B000F840FFF7BBBF57F8241006EB8400FFF759
:1051C000BFFF0134F1E700BF00900350003A18BF61
:1051D0000122003918BF012103688900074841EA0C
:1051E0004201186359605A6842F001025A60BFF3E5
:1051F0004F8FBFF36F8F0020704700BF04AAFF00DE
:105200000722024BC3F80423704700BF0030005050
:10521000084BD3F80801D3F80021003818BF01204B
:1052200080000AB140F00100D3F804310BB140F026
:1052300002007047003000500022074BC3F80021E5
:10524000D3F80011C3F80421D3F80411C3F80821DE
:10525000D3F80831704700BF0030005000231720FA
:105260000C49052B03F1010201D81346F9E703F5B8
:10527000C073202A41F823001346F2D100231720DF
:10528000044A03F5E0710133202B42F82100F8D1E4
:10529000704700BF0030005010B59DF80840C00BAB
:1052A00043EA0423064CC90B43EA0213884200D99F
:1052B00010BDC2B202F5C07244F822300130F5E7E9
:1052C0000030005010B59DF8084000F1604043EAFE
:1052D000042301F16041074C400B490B43EA0213E0
:1052E000884200D910BDC2B202F5E07244F8223003
:1052F0000130F5E700300050C0F30E03C3F5004362
:10530000B3FA83F3C3F11B03064AC0F3C730DBB221
:1053100040F4807043F48073C2F80005C2F804358D
:10532000704700BF003000504303014818447047E5
:10533000FF1FF81F054BC0F30730090241F0300191
:1053400000F5007043F82010704700BF0030005097
:10535000044BC0F30730090200F5007043F8201039
:10536000704700BF0030005008B5FFF751FF044BF5
:10537000162118600348BDE8084000F04CBD00BF8E
:10538000BCB800204C7F03000C2201490EF064BA27
:10539000BCB8002038B50446F8B10B291DD9104D12
:1053A0002B685A1C02D143F6DA3038BD7BB1082293
:1053B0000C4920460EF050FA0422094904F1080075
:1053C0000EF04AFA2B68002001332B60EDE7054808
:1053D00008F000FB0028EAD0E5E74CF2DA20E4E729
:1053E000C8B800209CC3002010B502F0D6FB0446CC
:1053F00028B908F0CDFA044618B145F223542046E6
:1054000010BD00F02CFF58B932210D4800F003FD0B
:1054100000F01EF80028F0D10A210A4800F0FBFC39
:10542000094A2E21D368094823F008031B041B0CEA
:1054300043F0BF6343F40033D36000F0ECFCDEE7DD
:10544000627F0300947F030000ED00E09E7F030075
:10545000002130B5ADF5077D1C220FA80E910EF08E
:1054600020FA374B02AA03F1080514461868596858
:10547000083303C4AB422246F7D118689B884FF427
:10548000E07200212060A38016A80EF00AFA00F056
:10549000E6FE20B12B480EF08EFA2B4C1FE002A93D
:1054A0000D2216A808F0D6FA014618B127480EF0CA
:1054B00082FA13E006A9202201AB16A808F010FB1F
:1054C000044616A808F0F6FA014614B9019D202DED
:1054D00009D02146019A1E480EF06DFA1D4C204657
:1054E0000DF5077D30BDE8B9022006A900F060F88F
:1054F00004460028F3D104200AA900F059F8044614
:105500000028ECD101462A4606A80EF0CAF92A4620
:105510000EA906A80FF0BAFF044628B10E480EF0F7
:105520004AFADBE70D48C2E7022000F057F820B145
:10553000042000F053F80028D1D10948ABE700BFA0
:10554000F5800300CC7F0300FE9AFEFFFD7F030081
:1055500028800300FD9AFEFF9C8003006380030007
:10556000D0800300F0B585B004460E4617461D46B0
:1055700000F034F898B10C9B2A4603930B9B8021D2
:10558000CDE9017320460A9B009608F0C9FB20B1C3
:10559000014604480EF00FFA034805B0F0BD034879
:1055A000FBE700BF03810300FC9AFEFFFF9AFEFFAA
:1055B00010B50B466FF003020549044608F0AEFB38
:1055C00028B10246214603480EF0F5F9024810BD05
:1055D0000014845049810300FE9AFEFF10B5431C5D
:1055E000C400024617491848C1F80035204400F0AD
:1055F00041FE013004D00023C1F80035012010BD68
:1056000004F57F0000F5044000F034FE0130F2D1D3
:1056100012010E4C02F57F0101F5084114440846C1
:1056200000F028FE013004D00022064BC3F800250C
:10563000E4E70431A142F2D10020024BC3F8000597
:10564000DDE700BF009003500484FF001088FF00D6
:10565000024B1860024B002019607047D0B8002040
:10566000CCB800201FB5374C426923685A62826962
:105670009A62C269DA62026A1A63426A5A63826A89
:105680009A63C26ADA63026B1A64426B5A60826B75
:105690009A60C26BDA60026C1A61426C5A61826C69
:1056A0009A61C26CDA61026D1A62826D5A65C26DCE
:1056B0009A65026FDA65026E1A66826E5A66426FEA
:1056C0009A66EFF388825A64EFF389829A6442689B
:1056D000DA64EFF394821A65026801A81A67FFF78B
:1056E00053FE2368019ADA6601221A70164B1C6871
:1056F000640864002046214622462346B7EE000A8D
:10570000F7EE000AB7EE001AF7EE001AB7EE002A1D
:10571000F7EE002AB7EE003AF7EE003AB7EE004A8D
:10572000F7EE004AB7EE005AF7EE005AB7EE006AFD
:10573000F7EE006AB7EE007AF7EE007A0FF0E4FEBB
:1057400004B010BDD0B80020CCB8002000B5A1B086
:1057500001A8FEF7FFFB029B63B15B060AD4019B25
:1057600023F00203052B05D1044B1B6813B101A8DC
:10577000FFF778FF21B05DF804FB00BFCCB8002034
:10578000BFF34F8F0549064BCA6802F4E06213432A
:10579000CB60BFF34F8F00BFFDE700BF00ED00E01F
:1057A0000400FA0503462DE9F04F084687B011467C
:1057B000042B78D8DFE803F00308770D510007B019
:1057C000BDE8F04F00F0A8BA07B0BDE8F04F00F018
:1057D00061BE4368082B03D0022007B0BDE8F08FFC
:1057E0004B68042BF8D14FF0FF33D0F80080D1F88C
:1057F00000A0D8F80410CAF800300029ECD0262305
:105800003C22012002F00AF804460028E4D1D8F82E
:105810000030DFF898B0DFF8989003AF5BF8045BD6
:1058200099E807001D4487E807000C2239462846FE
:1058300001930FF02BFE019B064600B91DB9013400
:10584000072CEBD1C8E73C222946D8F804000EF01B
:1058500003F8CAF800600020BFE74368082BBBD1FB
:105860004E68042EB8D14FF0FF3304680D682168EC
:105870002B600029B0D06368002BADD026237422A2
:10588000012001F0CBFF0028A6D1232332460120BE
:10589000616801F0C3FF00289ED1D4E90001FFF741
:1058A000D7FE2860D7E7032097E700BF8081030079
:1058B0009C810300F8B5C0F30B0686B920F47F6520
:1058C0000A4F25F00F054418AC4201D83046F8BD08
:1058D0002846FB69984728B905F58055F4E74AF250
:1058E000C536F3E743F65C26F0E700BF087F030008
:1058F0002DE9F74FDFF868A08346DAF804300F4649
:10590000154698470024154BC0F3410013F820902A
:10591000DFF8508004F18003AB4294BF80262E1B39
:10592000B6FBF9F24146DAF8143004EB0B000192B1
:10593000984700280EDB4146DAF81830019AE01942
:105940009847002806DB3444A542E3D8002003B082
:10595000BDE8F08F43F65C20F9E700BFA8810300A3
:10596000087F0300A4C300202DE9F3471B4D8146A7
:105970006B680F4614469847194BC0F3410013F863
:1059800020A0B9FBFAF60AFB16961EBB6CB1D5F83F
:105990001480B4FBFAF509F568292A4639464846C9
:1059A000C047002805DA43F65C26304602B0BDE861
:1059B000F0870AFB05F5641BF7D0012201A909EB6A
:1059C0000500C0470028EEDB224601A978190DF03A
:1059D00043FFEAE74AF2C536E7E700BF087F030066
:1059E000A88103002DE9F04F861806F6FF7525F40F
:1059F0007F6525F00F0585B0B5F5805F0446019100
:105A000004D943F65C2005B0BDE8F08FDFF878815B
:105A1000D8F8043098470422584BC0F3410053F89B
:105A20002070D8F8143056480093FBB2B2FBF3F262
:105A300003A9009B9847039A531C023208BF012315
:105A40000393002D34D024F47F6B2BF00F0BA5EBC8
:105A50000B010BF56820FFF72DFF0028D3D1B5F51A
:105A6000BE7FAA4628BF4FF4BE7ADA4529D8B5F5DD
:105A7000BE7F5ED3FBB20427B7FBF3F7414D3A4636
:105A800029463F48009B9847B6F5BE7F5CD8042264
:105A900003A93C480DF0E0FE3B4B3A4639493B48F0
:105AA0009B69984708B18742ABD100F079FCAAE71F
:105AB0004FF480514FF46820FFF7FCFE0028C2D05D
:105AC000A1E70BF180039A452CBF4FF08009AAEBA8
:105AD0000B095FFA87F8B9FBF8F82A494246009BA0
:105AE0000BF5692098475E4516D909EB0B039C42DC
:105AF00012D2A3455A4638BF2246111BA2EB0B0017
:105B00009E4294BFC2EB0602C2EB0302019B194402
:105B10001C4B18440DF0A0FE1B4B42469B691949D3
:105B20000BF56820984710B180457FF46AAFCB44ED
:105B30009BE74FF4BE724FF468214FF46920FFF7E2
:105B4000D7FE002896D05EE7B4F5C07F9FD2B4F5AB
:105B5000BE7F224638BF4FF4BE72019B111BA2F5D7
:105B6000BE700B44B6F5C07F94BFC2EB0602C2F50F
:105B7000C072194628440DF06FFE88E7A881030023
:105B80007C910E00A4C30020087F03007C810E00DE
:105B90002DE9F0414F4F86B00020BB6898470028A0
:105BA0006ED104226946FFF7DFFE0446002875D156
:105BB00004224FF4BE700DEB0201FFF7D5FE044640
:105BC00000286BD1444D009BAB4203D1019B013BAC
:105BD000033367D97B689847404BC0F3410053F8C3
:105BE000206004224FF4805004A9FFF7BDFE044654
:105BF000002853D1042241F27C1005A9FFF7B4FE1E
:105C0000044600284AD1049B4FF48051AB424FF424
:105C1000682012D1059B013B03330ED8FFF74AFEE3
:105C2000044600283AD14FF480524FF468214FF4D3
:105C30006920FFF75DFE044630E0FFF73BFE0446B7
:105C400060BB0146802226480DF02BFEF3B2802671
:105C5000B6FBF3F6DFF8888004F56820324641464B
:105C6000BB6980349847B4F5805FF5D300F098FBAA
:105C7000044698B9042202A90295FFF7B3FE10B1B9
:105C800043F65C240AE0012304224FF4BE7003A90A
:105C90000393FFF7A7FE04460028F1D1204606B083
:105CA000BDE8F081042241F27C1005A9FFF75CFEFB
:105CB00004460028F2D1059B5A1E033206D8019AE9
:105CC000934203D30233E9D1012AE7D100F068FB04
:105CD000B1E700BF087F03001281DEC0A881030086
:105CE000A4C300201E2811D801230A4A834013426E
