:020000024000BC
:10800000689F0220A5E804000DF2050091E8040035
:1080100091E8040091E8040091E8040091E804006C
:108020000000000000000000000000007DEA0400E5
:1080300091E8040000000000D1E9040091E8040088
:108040008DEC04008DEC04008DEC04008DEC04003C
:108050008DEC04008DEC04008DEC04008DEC04002C
:108060008DEC04008DEC04008DEC04008DEC04001C
:108070008DEC04008DEC04008DEC04008DEC04000C
:108080008DEC04008DEC04008DEC04008DEC0400FC
:108090008DEC04008DEC04008DEC04008DEC0400EC
:1080A0008DEC04008DEC04008DEC04008DEC0400DC
:1080B0008DEC04008DEC04008DEC04008DEC0400CC
:1080C0008DEC04008DEC04008DEC04008DEC0400BC
:1080D0008DEC04008DEC04008DEC04008DEC0400AC
:1080E0008DEC04008DEC04008DEC04008DEC04009C
:1080F0008DEC04008DEC04008DEC04008DEC04008C
:108100008DEC04008DEC04008DEC04008DEC04007B
:108110008DEC04008DEC04008DEC04008DEC04006B
:108120008DEC04008DEC04008DEC04008DEC04005B
:108130008DEC04008DEC04008DEC04008DEC04004B
:108140008DEC0400000000000000000000000000B2
:10815000000000000000000000000000000000001F
:10816000000000000000000000000000000000000F
:1081700000000000000000000000000000000000FF
:1081800000000000000000000000000000000000EF
:1081900000000000000000000000000000000000DF
:1081A00000000000000000000000000000000000CF
:1081B00000000000000000000000000000000000BF
:1081C00000000000000000000000000000000000AF
:1081D000000000000000000000000000000000009F
:1081E000000000000000000000000000000000008F
:1081F000000000000000000000000000000000007F
:10820000DEE61E284CBBCE8F025B00003C00000067
:108210001C410200010000000080040000800400F6
:10822000FFFF0291000000000000000000000000BD
:0C82300000000000000000000000000042
:1082400081F0004102E000BF83F0004330B54FEA07
:1082500041044FEA430594EA050F08BF90EA020F74
:108260001FBF54EA000C55EA020C7FEA645C7FEA07
:10827000655C00F0E2804FEA5454D4EB5555B8BF2A
:108280006D420CDD2C4480EA020281EA030382EA9B
:10829000000083EA010180EA020281EA0303362D2D
:1082A00088BF30BD11F0004F4FEA01314FF4801C00
:1082B0004CEA113102D0404261EB410113F0004F12
:1082C0004FEA03334CEA133302D0524263EB4303C9
:1082D00094EA050F00F0A780A4F10104D5F1200E67
:1082E0000DDB02FA0EFC22FA05F2801841F10001C2
:1082F00003FA0EF2801843FA05F359410EE0A5F196
:1083000020050EF1200E012A03FA0EFC28BF4CF0C6
:10831000020C43FA05F3C01851EBE37101F000457C
:1083200007D54FF0000EDCF1000C7EEB00006EEB89
:108330000101B1F5801F1BD3B1F5001F0CD3490813
:108340005FEA30004FEA3C0C04F101044FEA44526A
:1083500012F5800F80F09A80BCF1004F08BF5FEAF1
:10836000500C50F1000041EB045141EA050130BDD1
:108370005FEA4C0C404141EB0101013C28BFB1F5E3
:10838000801FE9D291F0000F04BF01460020B1FA2E
:1083900081F308BF2033A3F10B03B3F120020CDA01
:1083A0000C3208DD02F1140CC2F10C0201FA0CF0DF
:1083B00021FA02F10CE002F11402D8BFC2F1200C44
:1083C00001FA02F120FA0CFCDCBF41EA0C019040FA
:1083D000E41AA2BF01EB0451294330BD6FEA040443
:1083E0001F3C1CDA0C340EDC04F11404C4F120022E
:1083F00020FA04F001FA02F340EA030021FA04F340
:1084000045EA030130BDC4F10C04C4F1200220FA96
:1084100002F001FA04F340EA0300294630BD21FAD4
:1084200004F0294630BD94F0000F83F4801306BF9A
:1084300081F480110134013D4EE77FEA645C18BF8E
:108440007FEA655C29D094EA050F08BF90EA020F25
:1084500005D054EA000C04BF1946104630BD91EA1D
:10846000030F1EBF0021002030BD5FEA545C05D120
:108470004000494128BF41F0004130BD14F580045F
:108480003CBF01F5801130BD01F0004545F0FE41D3
:1084900041F470014FF0000030BD7FEA645C1ABF08
:1084A000194610467FEA655C1CBF0B46024650EA3F
:1084B000013406BF52EA033591EA030F41F400216B
:1084C00030BD00BF90F0000F04BF0021704730B5F1
:1084D0004FF4806404F132044FF000054FF00001C6
:1084E00050E700BF90F0000F04BF0021704730B587
:1084F0004FF4806404F1320410F0004548BF40425C
:108500004FF000013EE700BF42004FEAE2014FEAB0
:1085100031014FEA02701FBF12F07F4393F07F4F8B
:1085200081F06051704732F07F4208BF704793F08E
:108530007F4F04BF41F40021704730B54FF46074A1
:1085400001F0004521F000411CE700BF50EA0102A4
:1085500008BF704730B54FF000050AE050EA01024D
:1085600008BF704730B511F0004502D5404261EBBD
:1085700041014FF4806404F132045FEA915C3FF4FE
:10858000D8AE4FF003025FEADC0C18BF03325FEA9B
:10859000DC0C18BF033202EBDC02C2F1200300FA4C
:1085A00003FC20FA02F001FA03FE40EA0E0021FA71
:1085B00002F11444BDE600BF70B54FF0FF0C4CF45F
:1085C000E06C1CEA11541DBF1CEA135594EA0C0F11
:1085D00095EA0C0F00F0DEF82C4481EA030621EA4C
:1085E0004C5123EA4C5350EA013518BF52EA033587
:1085F00041F4801143F4801338D0A0FB02CE4FF039
:108600000005E1FB02E506F00042E0FB03E54FF068
:108610000006E1FB03569CF0000F18BF4EF0010E60
:10862000A4F1FF04B6F5007F64F5407404D25FEA5C
:108630004E0E6D4146EB060642EAC62141EA55510F
:108640004FEAC52040EA5E504FEACE2EB4F1FD0C51
:1086500088BFBCF5E06F1ED8BEF1004F08BF5FEACF
:10866000500E50F1000041EB045170BD06F0004681
:1086700046EA010140EA020081EA0301B4EB5C042E
:10868000C2BFD4EB0C0541EA045170BD41F4801126
:108690004FF0000E013C00F3AB8014F1360FDEBF4B
:1086A000002001F0004170BDC4F10004203C35DA27
:1086B0000C341BDC04F11404C4F1200500FA05F3AA
:1086C00020FA04F001FA05F240EA020001F000424B
:1086D00021F0004110EBD37021FA04F642EB0601C1
:1086E0005EEA430E08BF20EAD37070BDC4F10C04EB
:1086F000C4F1200500FA04F320FA05F001FA04F2AF
:1087000040EA020001F0004110EBD37041F100019A
:108710005EEA430E08BF20EAD37070BDC4F12005A5
:1087200000FA05F24EEA020E20FA04F301FA05F20D
:1087300043EA020321FA04F001F0004121FA04F2B5
:1087400020EA020000EBD3705EEA430E08BF20EA85
:10875000D37070BD94F0000F0FD101F000464000BF
:1087600041EB010111F4801F08BF013CF7D041EA41
:10877000060195F0000F18BF704703F00046520045
:1087800043EB030313F4801F08BF013DF7D043EA16
:108790000603704794EA0C0F0CEA135518BF95EACC
:1087A0000C0F0CD050EA410618BF52EA4306D1D153
:1087B00081EA030101F000414FF0000070BD50EA72
:1087C000410606BF1046194652EA430619D094EAFC
:1087D0000C0F02D150EA013613D195EA0C0F05D1E6
:1087E00052EA03361CBF104619460AD181EA03013A
:1087F00001F0004141F0FE4141F470014FF00000F2
:1088000070BD41F0FE4141F4780170BD70B54FF08C
:10881000FF0C4CF4E06C1CEA11541DBF1CEA13550C
:1088200094EA0C0F95EA0C0F00F0A7F8A4EB0504EE
:1088300081EA030E52EA03354FEA013100F08880E5
:108840004FEA03334FF0805545EA131343EA1263AE
:108850004FEA022245EA111545EA10654FEA002663
:108860000EF000419D4208BF964244F1FD0404F51C
:10887000407402D25B084FEA3202B61A65EB030578
:108880005B084FEA32024FF480104FF4002CB6EB35
:10889000020E75EB030E22BFB61A754640EA0C00B5
:1088A0005B084FEA3202B6EB020E75EB030E22BFF5
:1088B000B61A754640EA5C005B084FEA3202B6EB36
:1088C000020E75EB030E22BFB61A754640EA9C00F5
:1088D0005B084FEA3202B6EB020E75EB030E22BFC5
:1088E000B61A754640EADC0055EA060E18D04FEA83
:1088F000051545EA16754FEA06164FEAC30343EA23
:1089000052734FEAC2025FEA1C1CC0D111F4801FEF
:108910000BD141EA00014FF000004FF0004CB6E7E8
:1089200011F4801F04BF01430020B4F1FD0C88BF87
:10893000BCF5E06F3FF6AFAEB5EB030C04BFB6EB92
:10894000020C5FEA500C50F1000041EB045170BD85
:108950000EF0004E4EEA113114EB5C04C2BFD4EBB2
:108960000C0541EA045170BD41F480114FF0000E36
:10897000013C90E645EA060E8DE60CEA135594EAB2
:108980000C0F08BF95EA0C0F3FF43BAF94EA0C0FB5
:108990000AD150EA01347FF434AF95EA0C0F7FF42A
:1089A00025AF104619462CE795EA0C0F06D152EA7E
:1089B00003353FF4FDAE1046194622E750EA410662
:1089C00018BF52EA43067FF4C5AE50EA41047FF473
:1089D0000DAF52EA43057FF4EBAE12E74FF0FF3CD8
:1089E00006E000BF4FF0010C02E000BF4FF0010CA9
:1089F0004DF804CD4FEA410C7FEA6C5C4FEA430C22
:108A000018BF7FEA6C5C1BD001B050EA410C0CBF70
:108A100052EA430C91EA030F02BF90EA020F0020D2
:108A2000704710F1000F91EA030F58BF994208BF39
:108A300090422CBFD8176FEAE37040F001007047F6
:108A40004FEA410C7FEA6C5C02D150EA013C07D14D
:108A50004FEA430C7FEA6C5CD6D152EA033CD3D098
:108A60005DF8040B704700BF8446104662468C4692
:108A70001946634600E000BF01B5FFF7B7FF0028C5
:108A800048BF10F1000F01BD4DF808EDFFF7F4FFEE
:108A90000CBF012000205DF808FB00BF4DF808ED79
:108AA000FFF7EAFF34BF012000205DF808FB00BF9C
:108AB0004DF808EDFFF7E0FF94BF012000205DF8BE
:108AC00008FB00BF4DF808EDFFF7CEFF94BF012073
:108AD00000205DF808FB00BF4DF808EDFFF7C4FF6C
:108AE00034BF012000205DF808FB00BF4FEA410CB5
:108AF0007FEA6C5C02D150EA013C0AD14FEA430C98
:108B00007FEA6C5C02D152EA033C02D14FF00000D4
:108B100070474FF0010070474FEA410212F5001212
:108B200015D211D56FF47873B3EB625212D94FEAB4
:108B3000C12343F0004343EA505311F0004F23FA9E
:108B400002F018BF404270474FF00000704750EAF3
:108B5000013005D111F0004008BF6FF000407047B0
:108B60004FF00000704700BF53B94AB9002908BF51
:108B700000281CBF4FF0FF314FF0FF3000F00CB861
:108B8000ADF1080C6DE904CE00F01AF8DDF804E050
:108B9000DDE9022304B07047704700BF10F8012BD5
:108BA00011F8013B012A28BF9A42F7D0D01A70472A
:108BB000034613F8012B002AFBD1181A013870471D
:108BC0002DE9F04786468C460846089E15467446B1
:108BD0001946002B40F0C1808542B2FA82F245D995
:108BE0004AB1C2F1200300FA02FC954094402EFAEB
:108BF00003F343EA0C0C4FEA154EA8B2230CBCFB5E
:108C0000FEF80EFB18CC08FB00F943EA0C4399452B
:108C100028D9EB1808F1FF3704D2994502D9A8F1F9
:108C200002072B44A3EB0903A4B2B3FBFEFC0EFB2B
:108C30001C330CFB00F044EA0344A04214D92C1965
:108C40000CF1FF3304D2A04202D9ACF102032C4450
:108C5000241A43EA07401EB1D440002334607360F5
:108C6000BDE8F0874746DDE76346F1E792BB431B6B
:108C700001214FEA154EAFB2200CB3FBFEFC0EFBF8
:108C80001C330CFB07F840EA0343984561D9EB1805
:108C90000CF1FF3004D2984502D9ACF102002B440C
:108CA000A3EB0803A4B2B3FBFEFC0EFB1C330CFBCE
:108CB00007F744EA0344A7424DD92C190CF1FF33BE
:108CC00004D2A74202D9ACF102032C44E41B43EACC
:108CD0000040C0E7C2F120039540944020FA03F120
:108CE0002EFA03F34FEA154E9040AFB20343B1FBA7
:108CF000FEFC0EFB1C10190C0CFB07F841EA0041AE
:108D0000884522D969180CF1FF3004D2884502D970
:108D1000ACF102002944A1EB08019BB2B1FBFEFCBF
:108D20000EFB1C110CFB07F743EA01439F420ED9CF
:108D3000EB180CF1FF3104D29F4202D9ACF10201D1
:108D40002B44DB1B41EA004193E76046E3E76146C1
:108D5000F7E76046A4E76346B8E7834206D916B949
:108D6000002108467CE7C6E900E0F9E7B3FA83F79B
:108D70008FB9834201D3724508D8BEEB020460EB81
:108D8000030301209C461EB9002169E73846FAE733
:108D9000C6E9004CF8E7C7F1200CBB400EFA07F516
:108DA00022FA0CF42EFA0CF1BA401C4320FA0CF310
:108DB000B8404FEA144901431FFA84FEB3FBF9F8A7
:108DC00009FB18300B0C08FB0EFA43EA00439A45E6
:108DD00040D9E31808F1FF3004D29A4502D9A8F12E
:108DE00002002344A3EB0A0389B2B3FBF9F809FBA1
:108DF000183308FB0EFE41EA03418E452CD9611859
:108E000008F1FF3304D28E4502D9A8F102032144B0
:108E100043EA0040A1EB0E01A0FB02984145CE467B
:108E2000434602D306D14D4504D20138B9EB020EB8
:108E300068EB0403002EA7D0B5EB0E0261EB030133
:108E400001FA0CFC22FA07F3F9404CEA0303C6E9E5
:108E5000003199E74046C5E74346D9E700000000E6
:108E60002DE9F04F04469BB0C069FFF73BFB5AA3C6
:108E7000D3E90023FFF7CAFC8246A0698B46FFF7BF
:108E800031FB55A3D3E90023FFF7C0FCCDE9120164
:108E9000606AFFF727FB0022514BFFF7B7FCCDE9D3
:108EA0001401E06BFFF71EFB00224D4BFFF7AEFCF9
:108EB000CDE91601DFF83C914FF0FF324FF0FF3360
:108EC000484611F0BFF959465046FFF725FE0546C2
:108ED000DDE91201FFF720FE0646DDE91401FFF788
:108EE0001BFE0746DDE91601FFF716FEA388804644
:108EF00019933C4BD3E90023CDE91023FFF7F2FA95
:108F000002460B46DDE91601FFF79EF90022364BBB
:108F1000FFF752FBFFF700FE0028B8BF4042CDE943
:108F20000D803846FFF7DEFA02460B46DDE91401F4
:108F3000FFF78AF900222C4BFFF73EFBFFF7ECFD11
:108F40000028B8BF4042CDE90B70E37D30460A935C
:108F5000237D0993FFF7C6FA02460B46DDE91201AD
:108F6000FFF772F91CA3D3E90023FFF725FBFFF7F6
:108F7000D3FD0028B8BF4042CDE907602846FFF77F
:108F8000B1FA02460B4650465946FFF75DF912A367
:108F9000D3E90023FFF710FBFFF7BEFD0028B8BFA1
:108FA0004042CDE90550A37A4FF400710493637AEF
:108FB0000E4A0393237A0E480293E3790193A3792F
:108FC0000093199B15F020FB48461BB0BDE8F04FFD
:108FD00011F0B0B9AFF3008000000000D01263417F
:108FE00000408F40C855012000005940D67406004B
:108FF000344D0120745201202DE9F04F824617466E
:109000001C4600259FB00391387810B9284600F01F
:10901000A9BD252809D00399D0470028C0F2A28510
:109020007B1C01350593059FEEE71822002110A84F
:109030001BF002FD7B78252B00F0BC8000239846B6
:109040009E469C461846791C0E4611F8012B2B2A89
:1090500000F0E38000F2DA80202A00F0E180232A89
:1090600000F0E1802BB19DF8483043F040038DF8CB
:109070004830B8F1000F05D09DF8483043F0200388
:109080008DF84830BEF1000F05D09DF8483043F010
:1090900010038DF84830BCF1000F05D09DF8483022
:1090A00043F008038DF8483028B19DF8483043F06C
:1090B00004038DF848309DF8483003F044014429FA
:1090C00003D16FF386138DF848309DF848302A2A73
:1090D00043F080030E968DF8483040F0A9809DF84B
:1090E000493043F001038DF84930731C1A782E2A59
:1090F0000CBF012100219DF8492061F341028DF848
:1091000049200CD15A1C0E925A782A2A40F0A0808D
:109110009DF84920023342F004028DF849201A7864
:109120006C2A00F0C18000F2A380682A00F0A980B8
:109130006A2A00F0C2804C2A00F0C78013F8012B85
:10914000782A05938DF84B2000F209816D2A00F2F0
:10915000C980692A00F20381572A00F2E280412A7D
:1091600004D0A2F14503022B00F2F98004219DF8FE
:109170004A3002F0DF02A2F1410961F30203D9F1A2
:1091800000029DF8491042EB090262F3C7110A067A
:109190008DF84A308DF84910CBB200F11F8103F0F1
:1091A0007802182A40F009816FF3C6038DF8493020
:1091B0000023F8E08DF84B30BB1C05939DF8493037
:1091C0009DF84A20DE0702F0070040F1098154F8BB
:1091D000041B0029049108DA9DF8481041F00401AD
:1091E0008DF84810049949420491590740F10081D3
:1091F00054F8046B002E80F2FF809DF849306FF325
:1092000041038DF849304FF0FF36F5E02D2A0DD09F
:10921000302A7FF427AF012316E74FF0010C13E744
:109220004FF0010E10E74FF001080DE701200BE7AA
:109230000EA804F027F80E9BB3423FF457AF9DF8F9
:1092400048201390C00F60F341028DF848204DE78D
:109250000EA804F017F89DF848301490C3F34002AC
:1092600042EAD07262F341038DF848300E9B56E714
:10927000742A26D07A2A7FF461AF06219DF849200E
:109280000CE05A78682A9DF8492006D1012161F343
:10929000C6028DF84920023350E7022161F3C6026D
:1092A0008DF84920013349E75A786C2A9DF8492006
:1092B00001D10421EBE70321F0E705219DF84920C6
:1092C000ECE707219DF84920E8E7BDF8482022F4A3
:1092D000F04222F0020242F4804242F00202ADF873
:1092E0004820DFE76E3AD3B201229A4040F282432F
:1092F0001A429DF8493039D112F0240F61D1D107BB
:109300002DD503219DF84A2003F07803A3F14008EE
:1093100061F30202D8F100038DF84A2043EB080301
:1093200041E00120A2F15801C9B200FA01F111F4A3
:10933000624F7FF41BAF40F6010319429DF849309C
:109340001AD111F4043F0AD09DF84A2060F30202BA
:1093500003F07803402B8DF84A207FF429AF9DF865
:10936000483043F001038DF8483021E702219DF891
:109370004A2061F30202EBE702209DF84A1003F055
:10938000780360F30201402B8DF84A1002BF9DF86C
:10939000481041F001018DF84810632A7FF408AFAE
:1093A000003B18BF01239DF84820C2F340010B4346
:1093B00063F341028DF8482000E713F0380FCED157
:1093C000F6E603219DF84A2013F0780F61F30202BC
:1093D00014BF012300238DF84A20E4E70123E2E7CC
:1093E0009DF948100029ACBF4FF0FF311399FBE6FF
:1093F0009E077FF508AF149E00230428CDE91333A0
:109400009DF8493007D1990705D49DF949100029E5
:10941000ACBF06260D2602F00702012AC3F3C303E0
:1094200032D1DA1E042A04D8DFE802F020454520B4
:1094300020002268012B4FEAE271CDE910211BD1F7
:109440009DF94020D117CDE9102104349DF8482022
:10945000069292074FD03A465046059B039915F065
:109460004CF90028C0F27E830544DCE554F8042B57
:10947000D117CDE91021E9E7022BE6D111B242F371
:10948000C032CDE91012E0E7022A24D1DA1E042A04
:1094900004D8DFE802F0181010181800012B4FF064
:1094A000000154F8042B14D0022BCDE91021CDD1AA
:1094B00092B21092CAE7073424F00704F4E80201DC
:1094C000CDE91001C2E754F8042B1092002211924A
:1094D000BCE7D2B2CDE7042A08D1073424F0070450
:1094E000D4E900010834CDE91001AFE7032AADD17A
:1094F00054F8042BDDE79DF84B80B8F1780F3FF668
:1095000092ADB8F1570F5CD8B8F1250F00F0A480E8
:10951000B8F1240F7FF687ADB8F1410F04D0A8F160
:109520004503022B3FF67FADDDE91023002BC0F28F
:109530004D810699080700F14C81C1F300194FEAEB
:109540004919C3F30A51C3F31303002940F04481BE
:1095500052EA030014BF4FF0010C4FF0000CD80288
:1095600040EA5250D702CDE90C70B8F1460F47EAF5
:10957000010740EAE17008BF4FF06608384300F089
:10958000B781BCF1000F10D01B0343EA125317033D
:109590003A4618464FF0000C002880F25681BCF184
:1095A000000F40F05981CDE90C730D9BA1F2FE3BF9
:1095B00043F000430D930021DDE90C230F46052005
:1095C00060E1A8F15802202A3FF62DAD01A151F823
:1095D00022F000BF9F97040027900400279004000A
:1095E000279004002790040027900400279004008F
:1095F0002790040027900400299504002790040078
:109600004B9704005F9704002995040029950400F6
:1096100029950400279004005F9704002790040018
:10962000279004002790040027900400A5970400C9
:109630009F970400EF9604002790040027900400F1
:1096400069960400279004009F9704002790040067
:10965000279004009F97040040460399D0470028B4
:10966000C0F280820135DEE4002E109F3BDB3146E4
:1096700038461BF0A4FB002F3FF4D5AC4FF0000997
:109680003E18F31B9DF84A2012F01001069100F0DD
:109690005E82023312F04002DDF84C80089218BF5F
:1096A000149A434418BF9B18049ACDF81C80002AD2
:1096B00040F36882D31A9DF8482004935007C2F300
:1096C000800B00F15F82510640F14F82B9F1000F2B
:1096D00007D048460399D0470028C0F24382D946B4
:1096E0000135302242E23846FFF762FAC6E71098A9
:1096F000002800F027820DF175030093002117ABBD
:1097000012AA03F0D5FD4FF000090746BDF84A3014
:1097100003F0EF0343F4F04343F01003ADF84A3095
:10972000002E0CDB9DF848200DF17503DB1B6FF359
:1097300086129E428DF8482001D9F31A1393002F08
:109740003FF471AC0DF175066DE0109B4FF0000910
:109750008DF85C300DF15D06012317AF92E7069B93
:109760001F0754BFC3F300194FF02B09DDE9102385
:1097700058BF4FEA4919002B06DA4FF02D09524223
:1097800063EB4303CDE91023DDE910010DF175030F
:10979000009312AA17AB03F08BFD0746C0E74FF00A
:1097A0000009F1E7109A072B3FF63DACDFE803F024
:1097B0000C04060C08080C0C157034E4158032E417
:1097C000EB17C2E900532EE415602CE44FF02D098D
:1097D000B7E64FF02B09B4E640F2FF70814231D179
:1097E000A34908F101085FFA88F811F8081013433B
:1097F00001F003011ED101290BBF492369234E212A
:109800006E210CBF462266228DF85C309DF84830F0
:109810008DF85D106FF386138DF85E208DF848305B
:109820000DF15F0617AFF31BB9F1000F3FF42AAF3C
:10983000013327E7012915BF6E234E236121412102
:109840001A46E1E74FF0000C89E692184FF0010C40
:1098500001F1FF3140419FE6CDE90C20A5E6520819
:1098600042EAC3725B08B3F1333F59460BF1010B77
:10987000F5D201F1020B012100FB03FCA2FB002346
:10988000013F63441BF1020FE9DB09B1CDE90C2371
:10989000DDE90C32BBF1000F2DDCCBF10401A1F1AD
:1098A00020000BF11C0B02FA0BFB22FA00F0CA405D
:1098B000CB40079208F0DF0243EA0B03472A43EA52
:1098C00000037BD1F91C01DBBE422ADAA8F10208B1
:1098D000002E5FFA88F87ADD9DF84820013E920656
:1098E00075D4B6F1000B18BF4FF0010B721C26E0C7
:1098F0004FF0000B5FE6023342F100020CA80BF1BF
:10990000FF3B0137CDE90C3214F0C8FEDDE90C3223
:10991000DB185241002A0BF1FF3BF9DACDE90C329A
:10992000B6E79DF84820F61B90064DD4B6F1000B23
:1099300018BF4FF0010BF2194FF066084AD4102AF5
:10994000A8BF10229FED487B10208DED0E7B0B9061
:10995000DDE90E01002A3FD1079A1B1842EB0101F5
:10996000B1F1805F47D2CDE90C31069BB8F1660FAB
:1099700003F0200240F0C680002F47DC30238DF832
:109980005C30002A76D1002E40F3BD812E238DF865
:109990005D3087B17B42B342A8BF3346002B13939F
:1099A000A6EB0306D4BF002301239DF84A2063F3EE
:1099B00045128DF84A200DF15E0340E0B8F1660FC4
:1099C0004FF0000BB7D091E74FF0000BB3E74FF02B
:1099D000000B8BE70022B5E7400840EAC170490858
:1099E000CDE90E010EA8CDE9082314F057FE089A20
:1099F000099B013AACE75B0843EAC1730CA849082C
:109A0000CDE90C31013714F049FEAEE717AB0B99E5
:109A100000290BDD0BA90CA8CDE9063214F056FE87
:109A2000069B013F079A03F8010BF0D11397AAB9DF
:109A3000002E40F366812E2103F8011B0027002E23
:109A400021DD0B9A002A1EDD0BA90CA8069314F049
:109A50003DFE069B013E03F8010BF0E72E2203F8C2
:109A6000012BEBE7AFF300800000000000000008CE
:109A70000CB006002E238DF85D30002F9BD0002EF9
:109A800088DC0DF15E03BBF1000F4FD114961E462A
:109A900008F0DF03452B24D1002FBABF7F422D23CE
:109AA0002B23632FC8BF64227370C4BFB7FBF2F3CC
:109AB00002FB13774FF00A02C8BF03F13001B7FB76
:109AC000F2F3C8BFB17003F1300102FB137386F8E3
:109AD000008003F13003D4BF023603363170737057
:109AE0000236139B002B2BDC149B002BD4BF0023CE
:109AF00001239DF84A2063F3861200238DF84A2043
:109B000033708FE60BA90CA8069214F0DFFD069ABD
:109B100030288DF85C0018BF07F1FF3712B9002E0E
:109B200040F3F1802E238DF85D3044E71E4616F891
:109B3000012C013B302AF9D02E2A08BF1E46A7E788
:109B40000123D6E7714E81460523771F9AE5110759
:109B500048BF01339EE5104609920399D04700287B
:109B6000099A05DA1FB0BDE8F08F2022DDF810B0A9
:109B7000594600290BF1FF3BEDDC049BCDF810B0FA
:109B80002B445D1AB9F1000F05D048460399D04720
:109B90000028E7DB0135089B002B77D09DF9493081
:109BA000002B28DB3B46DFF8689118789B4619F8B4
:109BB0000020013352073FD49DF84A30EF1B98062E
:109BC0005F4407D44246002A08F1FF383BDC079B7C
:109BD0003B449F1A9BF800002E280AD10399D047D6
:109BE0000028BFDBB8F1000F07F1010731DC0BF1F2
:109BF000010B5D4638E0B94699F80000C846702868
:109C000009F1010913D1EF1B149D47443D44EB1B9F
:109C1000002B33DC334642465046039914F06DFD69
:109C200000289FDB3844049E0546064464E00399FF
:109C3000D0470028E0DA95E706930399D04700283B
:109C4000069BB2DA8EE730200399D0470028B9DAB4
:109C500088E730200399D04708F1FF38C0E703991F
:109C6000D0470028FFF67EAF2878A84619F80030C4
:109C700001355907F3D4A7EB0B07C5E7302003994B
:109C8000D0470028FFF66EAF0137C0E79DF84A3095
:109C9000DA0601D41B0706D530200399D0470028E7
:109CA000FFF660AF0135069B3BB103999DF84B0071
:109CB000D0470028FFF656AF0135A84406E0302013
:109CC0000399D0470028FFF64DAF0135A8EB0503F7
:109CD000002BF4DC33463A465046039914F00DFD50
:109CE0000028FFF63FAF28449DE720200399D04786
:109CF0000028FFF637AF0135731B002BF5DCFFF7AB
:109D000092B91746BFE60DF15D03BCE63C7E060046
:109D10000DB00600000000002DE9F04F476A97B033
:109D20008346209E08910C92129355EC104B8DEDBA
:109D3000000B7FB9102011F0D3FE0246CBF82400AF
:109D400020B9A74BEA21A74811F086FEC0E90177A8
:109D50000760C760DBF82430196859B15A680123DD
:109D6000584693404A608B6013F05CF9DBF824306E
:109D700000221A602B1EB7BF23F0004300230122EC
:109D80000193A8BF3360019F974BB8BF3260BB43BC
:109D900019D142F20F73129A1360C7F313032343CE
:109DA00000F0DB85219B53B9904B21E0904B03934E
:109DB0000833219A1360039817B0BDE8F08F8B4BDE
:109DC00003930333F5E79DED007B0022002351EC64
:109DD000170B8DED0A7BFEF757FE804650B101232D
:109DE000129A1360219B13B1824B219A1360824B0C
:109DF0000393E0E7C7F30A5614AA15A958469DED48
:109E00000A0B13F097FB0290002E76D00B9BA6F264
:109E1000FF36CDF84C80C3F3130343F07F53DDE9E5
:109E20000A0143F4401319460022744BFEF70CFA62
:109E300065A3D3E90023FEF7BFFB65A3D3E90023A5
:109E4000FEF704FA04460D463046FEF74BFB62A3CC
:109E5000D3E90023FEF7B0FB02460B462046294615
:109E6000FEF7F4F904460D46FEF756FE00220746BB
:109E7000002320462946FEF711FE40B13846FEF782
:109E800031FB22462B46FEF7FFFD00B9013F162F9E
:109E900052D85B4B03EBC703DDE90A01D3E900238A
:109EA000FEF7FCFD002849D0013F00231193149BCD
:109EB0009B1B5A1E4CBFC3F101030023079245BFF1
:109EC0000693002306930793002F39DB079B109717
:109ED0003B44079300230993089B092B66D8052B65
:109EE000C5BF043B002401240893089B023B032BBD
:109EF00067D8DFE803F02D3A3859DDE914631E44D2
:109F000006F23243202BC9BFC3F14003C3F1200343
:109F10009F4006F21243D8BF04FA03F006F1FF3661
:109F2000C4BF24FA03F347EA0300FEF7CBFA012289
:109F3000A1F1F873139276E70123B7E71190B6E722
:109F4000069BDB1B06937B42099300231093C3E718
:109F500000230D930C9B002B56DC012399461A46D7
:109F600004930C920CE00123F3E700230D930C9B68
:109F7000FB1803F1010904934B46012BB8BF0123E1
:109F8000DBF824000021042202F114059D423FD990
:109F90004160584613F006F8039000283BD1194B56
:109FA00002464FF4D571CEE60123DFE701240023FA
:109FB0000D9408934FF0FF33002299460493122327
:109FC000CFE701230D93F5E761436F63A787D23F86
:109FD000B3C8608B288AC63FFB799F501344D33F98
:109FE00059B1060070B106000000F07F55B10600BF
:109FF0004CB106004F9506004E9506000000F83F54
:10A00000F05D0600E4B106000C9B99460493B7E7A7
:10A0100001315200B8E7DBF82430B9F10E0F039A92
:10A020001A606FD8002C6DD0002F36DD07F00F02BC
:10A03000A04BF8054FEA271403EBC20393ED007B16
:10A040008DED0E7B17D59C4B04F00F044FF00308E9
:10A05000D3E90823DDE90A01FEF7D8FBCDE90001C9
:10A06000954D5CB9DDE90E23DDE90001FEF7CEFB7D
:10A07000CDE900012BE04FF00208F1E7E10709D537
:10A0800008F10108DDE90E01D5E90023FEF794FA95
:10A09000CDE90E0164100835E3E700F007817C424A
:10A0A000844B854D4FF0020804F00F02241103EB9E
:10A0B000C203DDE90A01D3E90023FEF77DFA00239C
:10A0C000CDE90001002C40F0E580002BD0D1119BA0
:10A0D000DDE90045002B00F04C810022774B204643
:10A0E0002946FEF7DBFC002800F04381B9F1000FA0
:10A0F00000F03F81049B002B00F3E480DDE90A348B
:10A10000CDE90034159B002B02DB0E2F40F3428279
:10A110000D9A002A40F06782099C0025DDF818801E
:10A12000B8F1000F0DD0079B002B0ADD4345069ABE
:10A13000A8BF4346D21AA8EB03080692079AD31A7F
:10A140000793099B0BB30D9B002B00F0A682002CFC
:10A1500000F0A18229462246584613F08DF8029A53
:10A1600001460546584612F0DDFF0299064658465C
:10A1700012F058FF099B1B1B099300F09182099A6A
:10A180003146584613F078F802900121584612F0F3
:10A19000B3FF109B0446002B00F084821A46014650
:10A1A000584613F069F8089B0446012B03DC009B1A
:10A1B000002B00F07C820026236904EB83031869DE
:10A1C0001BF00BF8C0F120001096079B184410F00C
:10A1D0001F0000F09182C0F12003042B40F3818224
:10A1E000C0F11C00069B034480440693079B034474
:10A1F0000793069B002B05DD1A460299584613F07B
:10A2000095F80290079B002B05DD21461A4658461B
:10A2100013F08CF80446119B002B00F07682214647
:10A2200002981BF029F8002880F26F8200230A228E
:10A230000299584612F018FF0D9B7E1E0290002BCB
:10A2400000F05C82002329460A22584612F00CFFD7
:10A25000049B0546002B03DC089B022B00F35E8267
:10A26000B8F1000F05DD29464246584613F05EF866
:10A270000546109B002B00F0D0826968584612F00A
:10A2800091FE0746002840F07F820D4B024640F2C7
:10A29000EA2158E5E20706D508F10108D5E90023CF
:10A2A000FEF78AF90123641008350BE74FF0020826
:10A2B0000DE700BFF05D0600C85D06000000F03F3E
:10A2C000E4B1060020460022AC4B2946FEF774F9A3
:10A2D0007E1E08F10108049CCDE900014046FEF70E
:10A2E00001F9DDE90023FEF767F9A54B0022FDF730
:10A2F000ADFFA1F15073CDE90E010F93002C3BD1BE
:10A300000022A04BDDE90001FDF79EFF02460B464F
:10A31000CDE90023DDE90E23FEF7DEFB002840F047
:10A320005781DDE90E2101F10043DDE90001FEF76F
:10A33000B5FB00283FF4E2AE002425460C9BDDF877
:10A340000CA0DE434FF000082146584612F06AFE8A
:10A35000002D00F0A980B8F1000F05D0A84503D06A
:10A360004146584612F05EFE2946584612F05AFE03
:10A370009AE03E464C46B1E7834B03EBC40353E9F6
:10A380000201039B1C440D9B002B4AD002460B4646
:10A3900000207E49FEF73AFADDE90E23FDF754FF6F
:10A3A000DDF80CA0CDE90E01DDE90001FEF7B4FBFC
:10A3B0000546FEF797F8024630350B46DDE9000109
:10A3C000FDF742FF0AF8015B02460B46CDE90001AA
:10A3D000DDE90E01FEF780FB002865D100206C4905
:10A3E000DDE90023FDF730FF02460B46DDE90E01F3
:10A3F000FEF772FB002840F00D81A24500F0EA80D4
:10A4000000225E4BDDE90E01FEF7D6F800225B4B21
:10A41000CDE90E01DDE90001FEF7CEF8CDE900013E
:10A42000C2E7DDE90E23FEF7C7F8A046DDF80CA071
:10A43000CDE90E01DDE90001FEF76EFB0546FEF7F2
:10A4400051F8024630350B46DDE90001FDF7FCFE10
:10A450000AF8015B02460B46A245CDE900234FF006
:10A46000000223D1494BDDE90E01FDF7EFFE024664
:10A470000B46DDE90001FEF72FFB002840F0CA8003
:10A4800000204249DDE90E23FDF7DEFE02460B46C1
:10A49000DDE90001FEF702FB70B1C24608F1FF38AA
:10A4A0001AF8013C302BF8D0374655E0334BFEF715
:10A4B00083F8CDE90001BDE7DDE90A34CDE90034D8
:10A4C000159B002BFFF628AE0E2F3FF725AE2E4B27
:10A4D00003EBC70393ED007B0C9B002B8DED047BFE
:10A4E00002DAB9F1000F64D0DDF80CA0DDE9004517
:10A4F000DDE9042320462946FEF788F9FEF70CFB28
:10A500000646FDF7EFFFDDE90423FEF755F80246A6
:10A51000204606F130040B462946FDF795FE0AF861
:10A52000014B039C02460B46AAEB0404A14540F0F4
:10A530008280FDF78BFE04460D46DDE90423FEF71D
:10A54000CBFA002865D120462946DDE90423FEF731
:10A550009BFA08B1F3075CD40299584612F062FDE9
:10A56000002301378AF80030129B1F60219B002BCB
:10A570003FF421ACC3F800A01DE400BF000024405C
:10A5800000001C4000001440F05D06000000E03FA9
:10A590000000F03FA24B03EBC70393ED007B0C9B45
:10A5A000002B8DED047B9FDAB9F1000F9CDC7FF46A
:10A5B000C3AE00229B4BDDE90401FDF7FDFFDDE9A1
:10A5C0000023FEF77FFA044600287FF4B5AE3E462E
:10A5D0002546B4E0DDE90A34CDE90034159B002BB3
:10A5E00001DB0E2FD6DD089A012A36DC139A82B3DE
:10A5F00003F23343099CDDF81880069A012158467E
:10A600001A440692079A1A44079212F075FD0546FD
:10A6100086E53E4653469A4613F8012D392A06D15F
:10A62000039A9A42F7D13022039901360A701A78B8
:10A6300001321A7038E700227B4BFDF7BDFF002284
:10A64000002304460D46FEF71FFA00283FF450AFE2
:10A6500082E7149BC3F13603CCE709F1FF34099B71
:10A66000A34208DBB9F1000FA3EB04040EDBDDF815
:10A6700018804B46C1E7099B109AE31A0994DDF84C
:10A68000188000241A444B461092B6E7069BA3EBB1
:10A6900009080023B1E7029E71E5099A029970E565
:10A6A000029672E5089B012B17DC009BABB9019B5E
:10A6B000C3F313039BB9019B23F00046360D360507
:10A6C00036B1069B012601330693079B013307939E
:10A6D000109B002B7FF470AD1096012075E50026CD
:10A6E000F6E73FF486AD1C33069A1A449844069266
:10A6F000079A1A4407927CE50346F4E7049B002B73
:10A700002BDC089B022B09DC27E0B9F1000F1DDCD4
:10A71000089B022B1ADD3E46CDF81090049B002BBF
:10A720007FF40CAE21460522584612F09DFC0146EE
:10A73000044602981AF0A0FD00287FF7FFADDDF86F
:10A740000CA0312301360AF8013BFBE50D9B3E4688
:10A75000CDF81090002B7FF483AD039F2146029823
:10A760001AF0B1FB039B00F13009049A07F8019B32
:10A77000FB1A9A4240F3CB8000230A2202995846E2
:10A7800012F072FC0290E9E72A6905F10C010C3025
:10A79000023292001AF029F901223946584612F085
:10A7A000C5FD039BA846054603F1010ADDE9032325
:10A7B00013440793009B03F0010309930AF1FF334D
:10A7C0002146029804931AF07EFB4146069000F160
:10A7D000300902981AF050FD2A462146074658468D
:10A7E00012F010FEC268014602B3584612F01AFC7D
:10A7F000002F3ADA01220299584612F097FD2146BD
:10A8000002901AF039FD002803DC29D119F0010F5C
:10A8100026D0B9F1390F1DD132E02846C1E700BF7B
:10A82000F05D060000001440000024400A900298E9
:10A830001AF022FD0A990C90584612F0F3FB0C9A7C
:10A840005ABB089B53B9099B43B9B9F1390F17D0CB
:10A85000002F05DD069B03F1310901E0002F2ADA04
:10A86000DDF810A00AF8019B6EE5089B3B4304D17C
:10A87000009B03F00103002BBCD0B9F1390F36D196
:10A88000049F392307F8013BBA46013F1AF8013CFF
:10A89000392B5AD001333B7056E5002F06DB089B5D
:10A8A0003B4306D1009B03F0010313B9002AA1DC4E
:10A8B000D6E7002AE1DC079B57460AF8019C53457E
:10A8C0002ED000230A220299584612F0CDFBA8454B
:10A8D00002904FF000034FF00A02414658460BD158
:10A8E00012F0C2FB804605460AF1010A66E7DDF870
:10A8F00010A009F10109B5E712F0B6FB2946804620
:10A9000000230A22584612F0AFFB0546ECE7049BF1
:10A910004FF00008002BCCBF1F460127039B1F44AC
:10A9200001220299584612F001FD214602901AF0C8
:10A93000A3FC0028A8DC02D119F0010FA4D1BA466B
:10A9400017F8013D302BFAD0FEE4039BBB429BD1AC
:10A950003123039A01361370F6E4219B002B7FF418
:10A9600025AA014BFFF744BA4CB106002DE9F0438C
:10A9700085B00B7806460C4602AF092B00F2D98051
:10A98000DFE813F00A001F002900C200D700D7003B
:10A99000D700CA00D700D100CB69674C53B1012161
:10A9A000664A674813F01FFA002323700C37BD4630
:10A9B000BDE8F0830321634A614813F016FA0123CE
:10A9C000F3E7CB69604A03215D4813F00CFA0022DB
:10A9D000594B1A70EAE74A69CB690321009258483B
:10A9E0005A4A14F095FAD4F81480B8F5807F12D939
:10A9F000DFF85C9149463046A8F5807215F00AFCF4
:10AA0000051E27D028DBA8EB0508B8F5807FF1D814
:10AA10006FF0790901E04FF00009424630464C4999
:10AA200015F0FBFB0546B8B9237B012B05D1238B21
:10AA30003046391DBB8015F078FBB9F1000F16D0F8
:10AA400063694FF48072012100923D48414A14F03D
:10AA50005FFAABE76FF00405237B012B05D1238B55
:10AA60003046391DBB8015F060FB002D30DB656979
:10AA70006E4605F1080323F00703ADEB030D02ACAE
:10AA80002A462046324919F0B0FF00238AB06355A8
:10AA900002AA314951613149C2E9061430491162B3
:10AAA000304942F8101F4FF42351254803F006F8AF
:10AAB0002D49B5462648FEF771F800287FF476AF99
:10AAC0001F480321294A13F090F9012002F03EFCAF
:10AAD00015F17A0FB4D02B460121254A184813F0FE
:10AAE00082F90321234A164813F07FF900213046EA
:10AAF00015F042FB034600283FF458AF1E4A0121DF
:10AB00000F4813F070F951E7CB690BB11B4AF6E718
:10AB10008B881B4A0321F3E7CB690BB1194AEEE797
:10AB20008B88194AF6E7CB69002B3FF43FAF174AF1
:10AB3000E5E7174AEEE700BFBC9F0120626A060006
:10AB4000885C06007A6A0600906A0600AD6A060014
:10AB5000BD9F0120CB6A06001A6B06001F6B060022
:10AB600000020103040000022A6B0600306B06009D
:10AB70004E6B06006E6B06008B6B0600A46B060026
:10AB8000BA6B0600CF6B0600E56B0600FA6B060099
:10AB9000126C06002DE9F04F0024102514268FB00A
:10ABA00000AF2A46214607EB050807F114003C6177
:10ABB00019F042FF404607F10801BE6000F082FC38
:10ABC0002A46214607F1280007F124057C6219F086
:10ABD00033FF284607F10C01FE6000F0C3FCC7F804
:10ABE00004D088B06A464FF4007B284BDFF8ACA055
:10ABF000C2E90535A2F81CB04FF4E65142F810AF97
:10AC0000DFF89C902346484602F058FFD7F804D05E
:10AC100088B06A461E4BA2F81CB0C2E9053842F85B
:10AC200010AFDFF880A0234648464FF4E651DFF826
:10AC3000789002F043FF4146D7F804D013225046E3
:10AC40001AF0AAF81322294648468AF813401AF047
:10AC5000A3F889F813400F4C5046C4F800A0FDF744
:10AC6000A7FF60600C4C4846C4F80090FDF7A0FFB9
:10AC700031466060404613F012F93146284613F021
:10AC80000EF93C37BD46BDE8F08F00BF306C0600C2
:10AC90004A6C0600D07B0120C87B01200300000124
:10ACA000885C0600A89F0120949F012007B503211E
:10ACB000224A234813F099F800210DF105022A20B9
:10ACC0008DF805108DF806108DF8071009F02EF894
:10ACD00001210DF106022A2009F028F802212A207C
:10ACE0000DF1070209F022F89DF8053023B1032188
:10ACF000144A134813F079F89DF8063023B1032164
:10AD0000114A0F4813F071F89DF8073023B1032161
:10AD10000E4A0B4813F069F89DF805302BB19DF8E9
:10AD2000063013B19DF8073023B90321084A0448BF
:10AD300013F05BF803B05DF804FB00BF646C060021
:10AD4000885C0600776C0600876C06009A6C06002B
:10AD5000AE6C06002DE9F04F4FF001084FF080096E
:10AD6000BFB002AF044607F1700615F03FF9542258
:10AD7000002107F11C0019F05FFE304607F10801C1
:10AD8000C7E90988C7F8089000F04CFB002130465D
:10AD90003B1D07F11C0214F0F0FA054688B103468A
:10ADA0004146564A564813F01EF84146554A544803
:10ADB00013F01BF86FF009052846F437BD46BDE8CF
:10ADC000F08F4FF0080A4946304613F068F8DFF874
:10ADD0007C91D7F804804A48B8F1000F29D0D8F800
:10ADE0001830082B5DD10120D8F81C3046495B682B
:10ADF00007F10C084B60454B08801B8842465BBA44
:10AE00004B801023043114F0B4FAE94688B002AB49
:10AE10003F4AC3E905284FF400729A831A463D4B16
:10AE200042F8103F00234FF4E651354802F046FE49
:10AE3000CD46786814F09FFA334BA365364BE36632
:10AE4000364B1A78002A41D08021354A354811F016
:10AE500091FB34482065FDF7ABFE334B334A236644
:10AE6000334B6065E365042384F88230314B032162
:10AE700023674FF4807363672F4B2148A3674FF418
:10AE80000173E36712F0B1FF0122002384F824204C
:10AE9000E262A263294AC4E90C33C4E91033E263D5
:10AEA0008AE7EB468AB002AAC2E905931823136227
:10AEB0000523C2F81CA042F8103F00234FF4215193
:10AEC00002F0FCFDDD46D8F8008084E7172130460B
:10AED0001B4A0DF073FD034628B10121194A0848A9
:10AEE00012F081FFB5E787F87F000F238021164A13
:10AEF00000960C4811F03EFBABE700BFD86C060093
:10AF0000885C0600EF6C0600988901208C450120C2
:10AF1000166D0600030000016DA90400B44C012069
:10AF20000BA60600149F0120D07B0120816D060036
:10AF3000C87B0120C1A20120BDA0012080450120C5
:10AF40004F6D0600576D0600786D06002C6D0600EB
:10AF500038B50D4D04462B78D90703D5014600209E
:10AF600007F09CFC2B789A0703D52146012007F0B7
:10AF700095FC2B785B0705D52146BDE838400220BB
:10AF800007F08CBC38BD00BFC2A301202DE9F04101
:10AF90001A4E1B4F337803F0FF001BB9BDE8F04198
:10AFA000FFF7D6BF3B78A3B1164A14685C43C4F5DB
:10AFB0007A74B4FBF3F40025DFF848803B78EAB2FA
:10AFC000934209D8002BE5D14FF47A7012F049FF73
:10AFD000E0E74FF47A74EEE733780135002BD9D0EF
:10AFE0000120FFF7B5FFD8F8000012F03AFF00206B
:10AFF000FFF7AEFF204612F034FFDFE7C3A30120C6
:10B00000C1A30120D87B012010B5094B1A786AB181
:10B0100000241C704FF0FF324FF0FF3305480FF053
:10B02000BBFF2046BDE81040FFF792BF10BD00BF38
:10B03000C3A30120C8530120F0B5154F06463B7845
:10B040000D46144689B023B907F008FC18B109B0C1
:10B05000F0BDFFF7D9FF0F4B1E700F4B1D700F4B4C
:10B060001C6001233B70002200230024CDE906234D
:10B070000A234FF40072CDE90334CDE90144084BB3
:10B080000849094800940FF03BFC2046DFE700BF69
:10B09000C3A30120C2A30120C1A30120D87B0120AA
:10B0A0008DAF0400A8450220C85301202DE9F04FC0
:10B0B00089B06D4602AF8AB002AA874B874C5361B4
:10B0C0004FF47A63C2E906434FF400731384844B50
:10B0D0004FF4135142F8103F8248002312F0DDFE76
:10B0E000814BAD460422204607F114017B6119F023
:10B0F0006CFC054640B101217C4A7A4813F0F5FE0C
:10B100001C37BD46BDE8F08F62792379032143EAFD
:10B1100002237448764A7B6012F0B6FE754CDFF865
:10B1200014A2DAF80030A4F57B28FB607B68A8F550
:10B130008068AB4261DDFB680F2B5EDCDFF8ECB1B1
:10B140002B4603216C4A6748CDF8008004F10109C1
:10B1500012F09CFED94505D9684A0121614813F0D7
:10B16000C4FE4AE04FF4AB72F96823784A43BA60F0
:10B17000B968634A102B02EB0106337403D809EB5C
:10B1800003025A451BD9CDF8008001215D4A55487C
:10B1900012F07CFE6D4688B002AA5B4B5B4953619E
:10B1A0005B4B504893614FF400739383594B42F8C3
:10B1B000103FE31E12F071FEAD464C461DE01A46EC
:10B1C0004946304619F011FC337C09EB030404F1C5
:10B1D0000208D84501D9504ABFE739F80330402B5F
:10B1E000A6F8523003D808EB03025A4519D90121B9
:10B1F0004A4A3C4812F048FE4446DAF8003003213F
:10B20000474A384812F040FE4FF47A630093A4F5A1
:10B210007B230321434A3348A3F5806312F036FEB3
:10B220006EE7BA68414602F111001A46344B1844E1
:10B2300019F0DBFBB6F8523008EB030404F1020905
:10B24000D94501D9384A88E738F80330B3F5807F0B
:10B25000A6F8543104D8354A09EB0301914205D9C7
:10B260000121334A1F4812F00FFEA6E7B868244CAC
:10B2700054301A464946204419F0B7FB4FF4AB73DB
:10B28000F9686E4603FB0143B3F854118AB0187C89
:10B29000DAF800C0B3F8523009EB010402AAC2E99F
:10B2A00007030623DFF890E05162C2E905EC4FF492
:10B2B000435142F8103F0B48002312F0EEFDDAF83C
:10B2C0000030B5460133CAF800304FF4A4700021B5
:10B2D00019F002F9013524E7976D060000B40F005C
:10B2E00004000001685B0600ABCDEF12CD6D0600D7
:10B2F000EB6D060006B40F00096E0600276E06000F
:10B30000B08901204E6E06000BA60600C01C00018D
:10B31000826E0600030000019C6E0600C46E0600EB
:10B32000806F06009E6F0600EC6E0600A0C30F0043
:10B330001F6F0600DC7B01204E6F060037B50C4DF9
:10B340000C4928680BF0E4F9044648B1009001214B
:10B350002B68094A094812F099FD204603B030BD18
:10B3600003212B68064A054812F08EFDF5E700BF61
:10B3700084450120E07B0120C16F0600685B060068
:10B38000E16F06002DE9F04389B08846DDE91197A9
:10B3900014461D46064628B122B11BB1B9F1000F73
:10B3A00000D057B90121184A184813F09EFD6FF0DC
:10B3B0006B04204609B0BDE8F0830321144A13480A
:10B3C00013F093FD6423CDE90493109BCDE902684B
:10B3D000CDE900530F48069722460C230E4900681A
:10B3E0000BF0B8F9044640B1034601210B4A074867
:10B3F00012F04AFD6FF06704DBE703213B68084A5F
:10B40000024812F041FDD4E70B700600685B0600AD
:10B410003670060084450120000250055170060078
:10B420007A700600D0B584B01F4B06461B680C46E8
:10B43000042B04AF09DC0093012104231B4A1C48A0
:10B4400012F024FD0023236025E01A48B0F8AC1662
:10B45000CDE90164B0F8AA3500F5AB62009300F2C3
:10B46000695300F2AC50FFF78DFF0346A8B921687D
:10B470006C468AB004AA1048D661C2E9050140F2C0
:10B48000013111840D490A4842F8101F4FF413513D
:10B4900012F003FDA546BD46D0BD0121084A04486F
:10B4A00012F0F2FCCEE700BFDC7B0120A3700600A7
:10B4B000685B0600B0890120E1700600040000010D
:10B4C000FB700600D0B584B01F4B06461B680C46C7
:10B4D000052B04AF09DC0093012105231B4A1C48FE
:10B4E00012F0D4FC0023236025E01A48B0F80218BB
:10B4F000CDE90164B0F8003700F2AE62009300F2CB
:10B50000BF6300F20270FFF73DFF0346A8B9216850
:10B510006C468AB004AA1048D661C2E9050140F21F
:10B52000013111840D490A4842F8101F4FF413519C
:10B5300012F0B3FCA546BD46D0BD0121084A04481F
:10B5400012F0A2FCCEE700BFDC7B01201B710600DD
:10B55000685B0600B08901205871060004000001F4
:10B5600071710600D0B584B01F4B06461B680C46AF
:10B57000062B04AF09DC0093012106231B4A1C485B
:10B5800012F084FC0023236025E01A48B0F8581913
:10B59000CDE90164B0F8563800F60402009300F6D5
:10B5A000150300F65800FFF7EDFE0346A8B9216821
:10B5B0006C468AB004AA1048D661C2E9050140F27F
:10B5C000013111840D490A4842F8101F4FF41351FC
:10B5D00012F063FCA546BD46D0BD0121084A0448CF
:10B5E00012F052FCCEE700BFDC7B01209071060018
:10B5F000685B0600B0890120CD71060004000001DF
:10B60000E67106007FB54FF0FF324FF0FF3332484E
:10B610000EF018FE31493248FDF7C0FA0446002802
:10B620003ED102212F4A304812F041FC0DF10F00AB
:10B6300016F09DFE9DF80F30012B02D12B4B1B788D
:10B640006BB902212A4A284812F031FC4FF420300D
:10B65000002112F03EFC6FF07F0004B070BD254B5E
:10B660001C60254D234C2B78ABB1244E244BC821B4
:10B67000244A00933046244B10F07CFF2348FDF70A
:10B6800097FA00210346214A2148009612F0B1FBA7
:10B69000002320602B7010480EF04CFE2068DCE781
:10B6A000164C1C4BC821174A00932046164B10F02D
:10B6B00061FF0B48FDF77CFA00210346084A00941D
:10B6C000134812F096FB0B4B4FF4007218600449BC
:10B6D000024819F08AF9C4E7745201208CA40120B1
:10B6E000344D01200D720600385C0600BC9F01201D
:10B6F00031720600E87B012063A80120C4A3012069
:10B700005A7206001A6B0600B44C01203F4F01200C
:10B71000F47B01204F7206002DE9F04F85B012F046
:10B72000C8FB07468846DFF8B0A15E4C12F0C1FBAB
:10B7300006460DF10F00894616F019FE9AF8001022
:10B74000054688B99DF80F2002F0FB03012B01D1BB
:10B7500061B91D46544A0B4620460221009513F05C
:10B76000D7FB4FF4203027E00025F3E703214F4AB1
:10B770000093204613F0CCFB4D49F21B69EB080304
:10B78000914275EB03030CDA03212046494A12F07B
:10B790008EFB00F09BFF012812D100F00FFF37460F
:10B7A000C84600F093FF022810D120460321424AE8
:10B7B00012F07DFB4FF40040002112F08AFBB5E748
:10B7C000032120463D4A12F072FBE8E74FF00009E2
:10B7D00012F081FB4FF4004C40F2E7304946384B01
:10B7E0004FF47A721D68DFF8F4B025EAE575C5FB01
:10B7F0000C010023FDF7B8F912F06BFB12F06BFBA4
:10B800004A460121584613F0A8FD054612F063FB95
:10B810004D452ADA13F09DFD01210368294A20468F
:10B8200012F055FB12F057FBFFF7ECFE0546DFF870
:10B83000B09012F050FB12F04EFB1DB32B460121CD
:10B840002046214A12F043FBD9F80030022120465D
:10B850001E4A12F03CFBD9F800300133042BC9F822
:10B86000003011DD012001F071FDDBD0BBF80630A6
:10B87000DB07D7D512F02FFB154814F0A9FC12F006
:10B880002AFBCFE7C9F8005012F025FB12F023FB8A
:10B8900012F00FFB0321831B0E4A204612F017FB08
:10B8A00044E700BF385C060061730600647206005E
:10B8B000BF2709008E720600DF720600B77206000D
:10B8C00088450120117306002273060033730600B9
:10B8D000F47B012049730600BC9F0120EC7B012012
:10B8E000E47B012010B5264A88B00321254812F0D8
:10B8F000DEFAFFF74FF94FF40040002112F0E9FAA9
:10B900002148FFF727FA034620B101211F4A1D48AD
:10B9100012F0DDFA4FF40040002112F0DAFA1A4872
:10B9200014F07BFB034620B10121194A154812F09F
:10B93000CEFA4FF4C030002112F0CBFA00220023DF
:10B940000124CDE9062300234FF40062CDE903432F
:10B95000CDE901330F4900930F48104B0EF0D0FF93
:10B960000F49094812F077FA034638B121460D4ACB
:10B97000044808B0BDE8104012F0A9BA08B010BDE4
:10B980008E730600385C0600F47B0120A873060065
:10B99000B8730600A8470220C854012019B7040054
:10B9A000EC7B0120C9730600F8B513F037FD60B3D6
:10B9B0003D4812F01CFE0FF059FA0D210FF096F9D8
:10B9C00003213A4A3A4812F072FAFFF7B7FC0346ED
:10B9D00020B10121374A364812F079FA40F6CD40BD
:10B9E000002112F076FA00F019FA06F037FF04464B
:10B9F00068B10121304A2E4812F059FA234601213C
:10BA00002E4A2B4812F063FA2AE02D48D1E7FFF7BF
:10BA10004DFB01214FF4FA720846FFF70DFB03219D
:10BA2000284A234812F043FA00F0C4FC044630B11F
:10BA300003460121244A1E4812F049FADEE7234A50
:10BA400003211B4812F033FA4FF42030002112F08A
:10BA500040FAFFF747FF03211D4A154812F027FA65
:10BA60001C4D1D4E1D4F12F024FA044600F056FAEC
:10BA70002B787BB14FF0FF324FF0FF3330460EF0A2
:10BA8000E1FB00F0EDFB30460EF054FC00232B7080
:10BA900001233B7012F00DFA0321031B104A0448E6
:10BAA00012F015FADFE700BFD6730600087406002F
:10BAB000385C06001974060031740600A474060090
:10BAC000F3730600577406006A7406008874060053
:10BAD0009A74060064A801207452012063A8012012
:10BAE000BE74060010B586B00091012101910021BD
:10BAF0008DF808100949CDE9031207228DF81420AA
:10BB00009DF81430826843F002038DF81430946875
:10BB1000422302226946A04706B010BDE5A70120D6
:10BB200001280FD005280FD00A280FD00F280FD0DA
:10BB300014280FD019280FD105230622074802FB2D
:10BB4000030070470023F8E70123F6E70223F4E738
:10BB50000323F2E70423F0E701487047286A060050
:10BB6000346A06002DE9F843284F06463D680C4626
:10BB700025B3C5F1FC08884528BF8846DFF89C90AE
:10BB80000146424609EB0500454418F02EFF4846A1
:10BB900029461F4A3D6012F0E0F9814628B1002392
:10BBA00044463B602046BDE8F8837E2D06D902213D
:10BBB000184A194813F099F9C7F800902146304601
:10BBC000134A12F0CAF90028ECD1651E3319002D72
:10BBD00001DA0024E6E713F8012DB52A13D16A1C17
:10BBE000944210D95A78622A0DD1A4EB0508B8F115
:10BBF000630F08D842460948711918F0F6FE2C4622
:10BC0000C7F80080CEE7013DE1E700BF947C01204A
:10BC10008DA601205F750600005C0600E9A60120E4
:10BC20002DE9F04F04460D4685B000AFFB1C1646CB
:10BC30000439BA1C023012F07EF9BA78631903F89D
:10BC4000022CFA78DFF808A103F8012C0223C7E9D7
:10BC50000145DAF800003B733B7B826843F0020346
:10BC60003B73956842230122391DA847A8B16C4651
:10BC70008AB06A462F4BD061C2E905364FF4007393
:10BC800013842D4B42F8103F00234FF411512B48E1
:10BC900001F014FF0025A54647E012F01EF94FF011
:10BCA000FF0B00F5FA7912F018F948450FD36C46EE
:10BCB00088B06A46224BC2E905364FF4007393837D
:10BCC000204B42F8103F00234FF4E451DFE740F2ED
:10BCD0006760002112F02DF94FF48072DAF800004D
:10BCE00087F804B0391DFFF7FDFE80460028DAD141
:10BCF0004FF48071E378A278134812F0FBF8054600
:10BD00000028D0D06C4688B06A46104BC2E9053690
:10BD10004FF4007393830B4B42F8103F4FF4E651FE
:10BD20004346064801F0CAFEA54628461437BD46DC
:10BD3000BDE8F08F8275060004000001005C06007B
:10BD4000A975060003000001E5A70120987506000B
:10BD500090450120F0B58DB00146FFF7E1FE0546A4
:10BD60004388264A009326480B46032113F0D0F857
:10BD700002AA1646234B03F10807144618685968AF
:10BD8000083303C4BB422246F7D118689B88206061
:10BD9000A3806B881C4A0E213046ADF80E30FFF7A9
:10BDA0003FFF0021044640F6CD4012F0C2F8174A8A
:10BDB0000B211748FFF734FF0021002818BF044665
:10BDC00040F6CD4012F0B5F806AA1746114B03F124
:10BDD000180C164618685968083303C6634532467E
:10BDE000F7D16B88182138460B4AADF82430FFF79D
:10BDF00017FF002808BF20460DB0F0BDBD75060036
:10BE0000005C0600845D0600EA750600F375060016
:10BE1000344F0120925D060003760600F7B5344CDE
:10BE200019230321334A344813F068F8206818F0C6
:10BE3000B9F838B9314A01212F4803B0BDE8F040C4
:10BE400013F053B8206802698168136823F008036F
:10BE500013600B684FF40032032198472068036990
:10BE60001B681B0783684FF0080154BFDB681B6920
:10BE70009847234A0321204813F037F84FF65760BC
:10BE8000002112F056F81F4B186818F08BF808B90B
:10BE90001D4AD0E7002403251C4E174F013403210F
:10BEA000384623463246009513F032F81920FFF742
:10BEB00051FF60B10122164B1A700321154A0E483A
:10BEC00013F013F803B0BDE8F04012F006B84FF4D9
:10BED0008040002112F02DF8032CDFD10C4B1B7891
:10BEE000002BEAD102210C4A034812F0FEFFE4E7DE
:10BEF000944501200F760600005C06002E760600B1
:10BF0000457606009045012070760600857606008D
:10BF10008CA60120DC760600A17606002DE9F04F04
:10BF200085B002AF11F0D9FF0021054640F275300F
:10BF300011F0FFFF7E2200214A4818F07DFDFF230B
:10BF4000FB71494B7E221868F91DFFF7CBFD474B6B
:10BF50001A6801321A60034660B1642092FBF0F166
:10BF600000FB1121A1B902210092414A414812F07F
:10BF7000CFFF0DE07D213B4B5A5C6AB1013139485E
:10BF8000FFF7F0FD3C493D4B0A681868824206D134
:10BF90000C37BD46BDE8F08F0139EDD2F8E7384CDB
:10BFA000DFF8F0801A602268D8F8000001320B7DBB
:10BFB0002260002848D1012B48D9324BC8F80050E4
:10BFC0001860DFF8C0902C48FCF74AFFD9F80060F1
:10BFD000D8F800300136C9F80060002BD8D042F202
:10BFE0000F72EB1A9342D3D93046FCF77BFA00224A
:10BFF000254BFCF70BFC02460B46DFF89CC0EA46DB
:10C000008CB0D4F800B0CCE9002302AC1F4B002266
:10C0100063610023FCF71AF919232246C4E90836A4
:10C020000723C4E90601C4F828B042F8103F0023F2
:10C030004FF463510F4801F041FD0023D546C8F885
:10C040000050C9F80030A3E7012BBAD8322092FB88
:10C05000F0F400FB1422002A9AD1CA7D0321009239
:10C060000B4A83E7E5A7012090450120887C012049
:10C0700015770600005C06008DA60120907C01204B
:10C080008C7C0120847C0120000024403577060050
:10C090006D770600807C0120C8550120B0B582B0C4
:10C0A0000378044602AF052B26D8DFE803F003250A
:10C0B00025346874037A494C012B1FD0052B1FD1FE
:10C0C000474B6D4688B002AA4649C2E905134FF4B2
:10C0D00000739383444B42F8103F00234FF4E65122
:10C0E000424801F0EBFCAD4641480EF0A5F921783D
:10C0F00011B9012000F018FABD46B0BD3D4BE0E794
:10C100002378012BF8D1032138483B4A11F056FF20
:10C1100000210846EEE7017A384A394B6D4688B06F
:10C12000012908BF134602AA3649C2E905134FF494
:10C13000007393832C4B42F8103F00232B484FF49D
:10C14000E65101F0BBFC207AAD460128234B0AD111
:10C15000197809B900F0E8F94FF4FA7201210220C8
:10C16000FEF76AFFC8E71B78022B03D100210846BF
:10C1700000F0DAF94FF4FA7201210720F0E7D0E974
:10C1800004320321009219481F4A12F0C1FE012215
:10C190001E4B1A70B0E7047A072C15D0092C19D061
:10C1A000D4B903211A4A114811F008FF0B4B1B7830
:10C1B000013B012B03D82146204600F0B5F90121AF
:10C1C0004FF4FA720846CBE7124A0321074811F0F0
:10C1D000F5FE91E7104AF8E7104AF6E7E5A80120D6
:10C1E000B5770600D877060003000001405C060022
:10C1F0001C5301209C770600F8770600C9770600DB
:10C20000D3770600347806004178060064A8012040
:10C21000A3780600727806008A780600C0780600C7
:10C22000F8B50546A0B1FCF7C3FC042810D90024DA
:10C23000084E294656F8340006EBC407FCF7AEFC5E
:10C2400008B97868F8BD01340B2CF2D10248F9E73F
:10C250000248F7E7B85E0600DA780600EA780600DA
:10C260002DE9F041474C98B00321474A474811F067
:10C27000A5FE2068B4F80480A7790D22002104905F
:10C280000DF11700ADF814808DF8167018F0D4FB7E
:10C2900020680D22002109900DF12B00ADF82880B7
:10C2A0008DF82A7018F0C8FB20680D2200210E902E
:10C2B0000DF13F00ADF83C808DF83E7018F0BCFBEE
:10C2C00020680D22002113900DF15300ADF850802D
:10C2D0008DF8527018F0B0FB16F054F8031E09AD3B
:10C2E00013AE07DA2A4A0121284812F007FE18B0D7
:10C2F000BDE8F0811422002004A907F0CDFA031E46
:10C3000004DA0121234A214812F0F8FD14222946BB
:10C31000032007F0C1FA031E04DA01211E4A1B485C
:10C3200012F0ECFD142205200EA907F0B5FA002842
:10C3300004DA0121194A154811F040FE0EA8FFF752
:10C340006FFF142204463146082007F0A5FA031EA9
:10C3500004DA0121124A0D4812F0D0FD04AB4FF46B
:10C360000071CDE901460F4A0F48009510F002F91F
:10C37000031E01DA0D4AB6E7B3F5007FB7DB0221F1
:10C380000B4AB1E7AA5D060000790600405C060092
:10C390001C790600407906005B790600807906006A
:10C3A00098790600B27906003F4F0120EF79060028
:10C3B0000D7A060010B505F031FD044638B103468C
:10C3C000174A0121174812F099FD204610BD164862
:10C3D00000F0E2F8FEF76AFC2146012015F0C9FFE3
:10C3E000204615F0C0FF012015F0C5FF03210F4ABC
:10C3F0000C4811F0E3FD0E4806F01CFC044610B199
:10C400000C4A0346DDE74FF0FF324FF0FF330A4896
:10C410000EF046F80321094A024811F0CFFDD4E797
:10C42000327A0600405C060029C50400647A0600E2
:10C430009DC004007E7A06001C530120A77A0600E6
:10C440000B4B37B504460D4618700A4A0346009157
:10C450000948032112F05CFD084B1B682BB12946EB
:10C46000204603B0BDE83040184703B030BD00BFE0
:10C47000E5A80120E97B0600D05B0600A87C01202E
:10C4800008B50321044A054812F02FFD15F060FF9E
:10C49000002000F05BFF00BF0F7C0600D05B0600B1
:10C4A000F0B5194D83B0284602AF1849FEF7BAFF20
:10C4B0006E468AB002AA164B164CC2E90535164BD9
:10C4C000D4611362154B42F8103F00234FF42351FF
:10C4D000134801F0F3FA0023B54621464FF0FF322E
:10C4E0002846009316F0DFF8044648B103210346BE
:10C4F0000C4A0B4812F002FD8021284611F0CFFCB7
:10C5000020460437BD46F0BD65A8012098450120AE
:10C51000387C0600344C01200002010304000002B4
:10C52000D05B06005E7C0600034B1B78834201D083
:10C53000FFF786BF704700BFE5A8012010B5084887
:10C5400009F050F9044618B9BDE81040FFF7A8BF3C
:10C5500003210346034A044812F0D0FC204610BDD4
:10C560005DC60400847C0600D05B060008B5094B5C
:10C570001B78022B03D0042B0AD1FFF781FFFFF7B2
:10C58000DDFF014620B1BDE808400120FFF7CCBF28
:10C5900008BD00BFE5A8012008B5054B186012F0E2
:10C5A0003DFF0449044817F0A2FE002008BD00BF6B
:10C5B000A87C01206DC50400987C012008B5154BAE
:10C5C0001B78042B22D8DFE803F00F0311191F009A
:10C5D00000210220FFF7A8FF0F4803210F4A12F0A5
:10C5E00084FC0F480EF0B8F8002008BD0D4A0A4838
:10C5F000032112F07AFC6FF00F00F6E703210A4ADC
:10C60000054812F072FCEFE7084AF0E76FF01500FA
:10C61000EBE700BFE5A80120D05B0600A97C06007F
:10C62000987C0120C77C0600EA7C0600187D060085
:10C6300008B5084B1B78032B08D100210420FFF715
:10C6400073FF05480EF088F8002008BD4FF0FF305A
:10C65000FBE700BFE5A80120987C012010B5037816
:10C66000012B16D0052B08D023BB43680321BDE85E
:10C670001040114A114812F041BC03210F48104AE2
:10C6800012F033FCBDE810406FF004010120FFF709
:10C690004BBF0C4A0321094812F027FC80210A48AD
:10C6A00011F0FDFB00210320FFF73EFFBDE8104025
:10C6B000FFF7BEBF10BD00BF607D0600D05B060067
:10C6C000337D0600487D060065A80120014B1878DF
:10C6D000704700BFE5A80120F0B5002421F0030257
:10C6E000184D194E194F0244904218D1002301F001
:10C6F0000300104482421FD112484C405843124B51
:10C700004FEA70405843124B604080EA1040584353
:10C71000104B80EA5030584380EA1040F0BD50F88A
:10C72000043B6B434FEA7343734363404FEAF34365
:10C7300003EB8303DC19D7E712F8015B45EA032317
:10C74000D8E700BF512D9ECC9335871B646B54E610
:10C750006BCAEB8535AEB2C22DE9F04F91B00093B4
:10C7600002F004030293C2F3C203013384070546B7
:10C770000E46DDF868800392059340F0BB81041DEE
:10C7800030B1072909D86FF01B0011B0BDE8F08F58
:10C7900001F007063444C6F10806009B4FF000097B
:10C7A0004FF0040A591E4FF0FF334F460193CB461A
:10C7B0005346CDF810900DB10098206005980028E0
:10C7C00000F3E8809848009A824203D39748824257
:10C7D000C0F0E080039AA4EB050E92074FEA9E009A
:10C7E00000F103810F2F00F2B180002D00F00581D0
:10C7F00007F140020DEB020C019A0CF8200C0CF82A
:10C80000102C049801300490E7E07A285DD84B287A
:10C810000ED8472859D829282DD8252852D054D8A1
:10C8200020287AD02338D0F1000B4BEB000B74E0BA
:10C830004C382E2849D8DFE800F07048484848486E
:10C840004848484848484B48484848484848485954
:10C85000484B4B595959704B6D487048184B184804
:10C8600048827F4B48484B487F0000204FF0000B28
:10C870004FF0040A38E001222A38C0B202FA00F070
:10C8800010EA0E0F49D110F0625C2FD110EA020BB2
:10C8900043D06046013C5444B4FBFAF40AFB04F470
:10C8A000002D61D0A3EB050CA444B4453FF66BAF5B
:10C8B000002868D1042B47D158F8043B2360042397
:10C8C00004342AE0019A013A01924FF0000B24E06F
:10C8D00011F8010C6C2834D1002011F8023C834679
:10C8E0006C2BC5D14FF0080A5346D3E708F107086F
:10C8F00028F00708073424F00704F8E802AB35B144
:10C9000006982044B0423FF63EAFC4E900AB4FF07A
:10C91000000B08344FF0080A534611F8010F0028A5
:10C9200078D0BBF1000F7FF470AF2528F5D14FF020
:10C93000010B019B013301934FF0040AECE75846C9
:10C9400094E700208346A5E7082B02D06FF015007E
:10C950001BE708F1070828F00708B8EC027B84ED14
:10C96000007B08230834D8E768B9042B02D108F10A
:10C970000408A4E7082BE9D108F1070828F0070804
:10C9800008F10808EDE705980138059058F8040B00
:10C99000009010E7039A900720D54FF0010CA4EB0C
:10C9A000050E4FEA9E00BEF5007FCFD20F2FCDD8E7
:10C9B000F5B107F140020DEB020E019AC0B20EF87C
:10C9C000200C0EF8102CBCF1000F3FF41AAF60F0F1
:10C9D0007F000EF8200C09F101090137C5F10802AA
:10C9E0004FF6DA7E0434069297E74FF0000CDAE750
:10C9F000BCF1000F01D00136EFE7029A0236002A9F
:10CA0000EBD10098CDE90631FCF7D2F8DDE906312B
:10CA10000644E2E7631BB3F5806F97D245B9A6F1F0
:10CA20000804E018B1E600BFB0550600B8B2060031
:10CA3000029A9B0828602B709DF81030C2B1EB70F1
:10CA400085F80290B9F1000F05D0002208A8C5F1C1
:10CA5000010C97420ED14FF0000AC5F101030DF110
:10CA6000200801930DF1300B574512D1601B8CE665
:10CA70006B70E5E710F8013B190608D50CEB040EC6
:10CA8000B64503F07F033FF67EAE04F8013B01326A
:10CA9000DFE7B9F1000F03D098F90020002A17DB77
:10CAA000029BD3B11AF80B2004F8012B0022019B42
:10CAB00018191044B0423FF666AE98F8000000998D
:10CAC00004F8010B2046039217F08FFF039A1444D9
:10CAD0000AF1010A08F10108C6E798F8002055F8A4
:10CAE00022300093029B009845F82230FCF760F852
:10CAF000421CDCE76FF00D0047E600BF2DE9F04F68
:10CB000097B000AFD7F880B03B62CBF3C0030446C8
:10CB1000894690F802A0FA62BB6141B94578007875
:10CB20000AEB800020444D4517D8A0EB0409E378B8
:10CB3000FB61BAF1000F02D01BF0010F16D1FB69A7
:10CB400053BBFB6A1BB1494620463A6A98474D469B
:10CB500028465C37BD46BDE8F08F461C3046FCF7E2
:10CB600027F80130304409F10109DCE762682378D5
:10CB70007A62FA6A9900796104EB8301002A40F035
:10CB800001810E464FF000084D4601EB0A094E4563
:10CB90004CD101EB0A0610E01BF0020FD1D0237834
:10CBA0009A007A61626804EB83017A62FA6A002A69
:10CBB00077D14D46904601EB0A061BF0050F0CBFDE
:10CBC00002230123FB62FB6906EB430A0BF002031D
:10CBD000BB625645BCD016F8021B16F8013C54F84F
:10CBE0002390994B994502D3984B994536D3BB690D
:10CBF000002B40D0786A11F0C1FC00283BD0E946F8
:10CC00008AB06A46924B53617B6AC2E906314FF49F
:10CC1000007313848F4B42F8103F00234FF41251DE
:10CC20008D4800F04BFF023DCD46D2E716F8013BA0
:10CC3000F96254F82300FBF7BBFFD7F88430F96A98
:10CC400001304BB1D7F8883098453EBFD7F88430D3
:10CC500023F8180008F10108054498E7BB6923B1DF
:10CC6000786A11F08BFC0028C9D11BF0010F05D1A7
:10CC7000FB6AED1AADE7BB6A002BAAD04846FBF76A
:10CC800097FFD7F8843053B1D7F8883098453FBF25
:10CC9000D7F88420431C22F8183008F10108054415
:10CCA00097E7BAF1000F73D01BF0040673D0D0469B
:10CCB000002607F1480052463B61B96217F095FE25
:10CCC000B96A3B6901EB0A02BA62FA69F969520072
:10CCD000FA60BA6A02EB41023A610BF00202BA60F2
:10CCE0003A69B96A8A4258D162781BF0020F18BFBC
:10CCF00000217A6208BF4FEA5801B2181BF0010FF9
:10CD0000D2B240F09F801BF0040F14BF40460020B9
:10CD1000BB616270A070E17020463A6A7969FB6A73
:10CD20009847051EFFF614AFBB69414623707B6A26
:10CD30003A6A6370FB6984F802A0E37007F1480067
:10CD4000FB6A9847B0F10008C0F2BA807B69A9EB92
:10CD50000A01C91AFB683A6AC91AD7E90A0398474F
:10CD60000028C0F2AF804FF0000BA84408EB00058C
:10CD700007F1380AB34571D300213A6A0846FB6AC5
:10CD80009847E5E656464FF0000807F1380092E76D
:10CD90005646D04696E7B04694E7BA6A12F8021BA8
:10CDA00012F8015CBA6254F82500274A904202D377
:10CDB000264A90421ED3BA6932B1786A7B6011F07C
:10CDC000DDFB7B6800288BD1BA6802BB08F1280222
:10CDD00007F1300C08F10100944407F1580208F102
:10CDE000020852FA80F00CF8101C5FFA88F800F87C
:10CDF000105C75E7BA693AB1786A7B6011F0BEFBE6
:10CE00007B6800287FF46CAF1BF0010F09D006F19E
:10CE1000280207F13000711C161806F8205CCEB20B
:10CE20005EE71BF0040F3FF45BAF08F1280207F147
:10CE3000300008F1010102EB000808F8105C5FFA0D
:10CE400081F84DE7002063E7B0550600B8B2060050
:10CE5000837D060004000001785B06001BF80A30A1
:10CE600054F8239087F83730D7F884302BB3D7F8AD
:10CE700088309B4521D2D7F8843033F81B800121BC
:10CE80003A6AFB6A07F13700984700281ADB054425
:10CE9000B8F1000F06D14846FBF78AFE00F1010801
:10CEA0001FFA88F8414648463A6AFB6A98470028C4
:10CEB00008DB05440BF1010B5CE74FF00008DEE7EF
:10CEC000454645E6054643E6014B1860704700BFFE
:10CED0009C45012030B5002587B0CDE9030104460B
:10CEE000009503A905480595FCF786F8DDE90430AF
:10CEF0009842B8BF255407B030BD00BFCBE5050050
:10CF00000F2808B506D912F024FA092303604FF060
:10CF1000FF3008BD3022044B02FB0033D3E8AF3FA3
:10CF2000002BF0D00020F4E7A84501200EB42DE935
:10CF3000F741302545431B4C05F10C0626444FF0C4
:10CF4000FF324FF0FF3304EB05080746304611F07F
:10CF50008FFBD8F8043060590AAA40F20111DB684F
:10CF600001929847051E10DBD8F82C3003F470426C
:10CF7000B2F5E04F05D011D803F45043B3F5804F1C
:10CF800003D1302303FB0744A562304611F072FB46
:10CF9000284603B0BDE8F04103B07047B2F5004F3A
:10CFA000EEE700BFA04501202DE9F74F0C9E054696
:10CFB000884691460193FFF7A3FF002855DB3021F7
:10CFC00001FB05FB2A4C0BF10C0727444FF0FF3304
:10CFD0004FF0FF32384611F04BFB04EB0B03DB6ADA
:10CFE00003F47043B3F5E04F14D11EBB4FF0010AB8
:10CFF0000BF12801214430206843019A23185B6813
:10D00000E2B1D3F804B0BBF1000F1AD112F0A1F9CC
:10D01000052303E066B112F09CF986234FF0FF3838
:10D020000360384611F026FB404603B0BDE8F08FA0
:10D03000B246DDE731464FF0010ADCE7D3F800B035
:10D04000E1E70B684A4641462058D8470028804609
:10D05000E7DDBAF1000FE4D0002EE2D1302303FB6C
:10D060000544A36A0344A362DBE74FF0FF38DBE724
:10D07000A04501203023434330B50D4908330B440C
:10D08000D3E8AF2F92B1541ED3E8EF5F954204D19D
:10D09000C3E8EC4FBCF1000FF6D1F1D1012A05D164
:10D0A0003023584300230A180B50536030BD00BF93
:10D0B000A045012070B504460E461546FFF720FF37
:10D0C00000280DDB30236343064AD11849683160DC
:10D0D00015B10C3313442B6030235C43105970BDE1
:10D0E0000020FCE7A045012070B500254FF0FF337C
:10D0F0004FF0FF32174811F0BBFA174BD3E8AF2FB0
:10D100007AB10135102D03F13003F7D112F021F976
:10D1100017234FF0FF3503600E4811F0ABFA284695
:10D1200070BD30246C43D3E8EF0F0130C3E8E10F4A
:10D130000029F8D1094E331932515A609A6204F12C
:10D140000C00304416F0FBFF04F12000304417F0CF
:10D1500006F9E1E760520120A8450120A045012021
:10D160002DE9F0411546302202FB00F4114F0E4626
:10D170003A1939515560D362CDB1EB68BBB112F0A9
:10D18000E8F80C34D0F8008040F205123146284609
:10D190003B1911F05EFAB8F15F0F08D012F0D9F820
:10D1A00003685F2B03D112F0D4F8C0F80080BDE80B
:10D1B000F08100BFA0450120F8B50546FFF7A0FEAD
:10D1C000002824DB30246C43124F04F10C063E444B
:10D1D0004FF0FF324FF0FF33304611F049FA3A1961
:10D1E00053689B688BB1D26A385912F4404F0AD009
:10D1F000294698470446304611F03CFA2846FFF786
:10D2000039FF2046F8BD9847F4E71C46F3E74FF096
:10D21000FF34F6E7A045012070B504460D46FFF740
:10D220006FFE00280DDB302303FB04F006492B467C
:10D230000C184FF4837209586068BDE8704011F013
:10D2400008BA4FF0FF3070BDA045012073B5044609
:10D250000D461646FFF754FE00280EDB3022084B21
:10D2600040F2011102FB04339B6A2A4600932046D8
:10D270003346FFF75BFE02B070BD4FF0FF30FAE7B8
:10D28000A0450120F0B5024601680A270020074E9C
:10D290000B461C780131355D6D0701D41360F0BD7C
:10D2A00007FB0043A3F13000F2E700BF0DB006001A
:10D2B0002DE9F84F15469A46D378234A6F2B12F87A
:10D2C00003B081460F460BF0030B2BD026D8582B0A
:10D2D0000CBF10260A26DDF8288032460023484677
:10D2E0003946FBF741FC092A08F1FF38D4B21ED8B1
:10D2F0003034B145E4B277F1000788F8004001D33B
:10D30000D04511D82B789B0605D5082E15D1AB78C2
:10D3100043F00803AB704046BDE8F88F03F0F70315
:10D32000702BD5E70826D6E781460F46D5E7BBF137
:10D33000010F0CBF37345734DBE7102EEBD1AB783D
:10D3400043F01003E6E700BF0DB00600044608B541
:10D35000EFF31183202383F31288BFF36F8F04F060
:10D3600033FD204601F0D4FA024811F040F911F0E3
:10D3700096FFFCE73D7E06002DE9F047058B04464D
:10D380002807904611D4022905F0070540F0CC800B
:10D39000204611F02CFC78B10138218B042811D8DB
:10D3A000DFE800F0C2106D85950001290CBF45F043
:10D3B000100545F02005258388F31188BFF36F8F92
:10D3C000BDE8F08701F0070AAA4500F0A580002714
:10D3D000B9463E46A368002B00F0BC8041F008012E
:10D3E000218388F31188BFF36F8FA168002900F0B3
:10D3F000BA800D68002900F0B680334652462046B8
:10D40000D1F80480C047002D76D02B6829461D46F0
:10D41000F0E701F007035A1F012A1BD8002221F070
:10D420000701062B276889B2C4E9002209D13B46CF
:10D4300003E0628B013262831B68002BF9D141F05B
:10D4400002012046218311F0D2FB00287AD041F05E
:10D45000200176E0042B0AD121F0070189B2204691
:10D46000218311F0C4FB10B141F020012183218BF5
:10D4700001F0070AAA454FD00027B946AAE7236959
:10D4800021F0070141F00601062DD3F80090218319
:10D490002DD1B9F1000F3FD041F00801218388F36D
:10D4A0001188BFF36F8F20463949C84729E021F022
:10D4B0000701236941F0040189B2042DD3F80490D7
:10D4C0002183E6D000274FF0040A3E4682E721F090
:10D4D0000701236941F0050189B2052DD3F80890B1
:10D4E0002183D6D000274FF0050A3E4672E7002779
:10D4F0004FF0060A3E466DE72B4687E7B9F1000F6D
:10D50000D1D1EFF31188202383F31288BFF36F8FFB
:10D51000238B23F008032383258BEA062ED525F0E1
:10D520001003238305F007056669218B002EBFF6E3
:10D5300070AF00232768C4E9003321F0070141F0F0
:10D5400001012183218B4FF0000901F0070AAA4550
:10D550007FF440AF002F9CD041F00801218388F375
:10D560001188BFF36F8F002FC8D03D68394633460E
:10D570005246204611F067FB2F46F4E7AB067FF5D5
:10D580001BAF25F02003238305F0070500E700BF4C
:10D5900073EC05002DE9F047044607464FF00109FA
:10D5A000DFF8508014B93846BDE8F08794FAA4F546
:10D5B000B5FA85F509FA05F32E0108EB05156FEAB2
:10D5C000030A24EA03042B7B002BEBD058F8063027
:10D5D0001B694BB94644736804222846196807EA58
:10D5E0000A0700F057FADDE7284698470028D9D106
:10D5F000F0E700BF185D060030B5002289B00F4982
:10D600000F4817F02AF8002200230024CDE9062352
:10D610000E230C4DCDE903344FF440722846CDE97A
:10D620000144094B094900940DF06AF9084928465C
:10D6300016F09FFE204609B030BD00BF55D604004D
:10D64000D85A0120D055012041D90400A84F02200A
:10D650007D7E060001480CF0EFBE00BF04530120A0
:10D660002DE9F04780461F480F4611F0BCFB0646E7
:10D67000002830D000252846BDE8F087237B6BB119
:10D680002368DB680BB12046984723681B69D3B930
:10D69000636804222046196800F0FCF90136103452
:10D6A0004C45EBD3B8F1000FE5D0002DE2D0284671
:10D6B000FFF770FF0546002FF7D000214FF4A4704C
:10D6C00016F00AFFF1E7204698470028E0D00AFA52
:10D6D00006F31D43E2E705464FF0010A024CDFF86E
:10D6E0000C90DDE7BC7C0120185D0600285D06007B
:10D6F000014B53F820007047345F060008B503461D
:10D7000008462BB1044A136000F072FC002008BDEB
:10D710006FF01500FBE700BFA048012010B5044CD6
:10D72000237813B903480CF087FE0123237010BD42
:10D73000E6A801200453012010B50446094811F061
:10D7400052FB3CB1084BD3E8EF1F0139C3E8E21F9D
:10D75000002AF8D1054816F08CFFBDE810400448B7
:10D760000CF06ABEB47C0120B87C0120D85A01209C
:10D770000453012000200146034BD3E8EF0FC3E818
:10D78000E21F002AF9D17047B47C012070B5FFF781
:10D79000F1FF0546074C084EB44200D370BD6368E4
:10D7A0005B792BB123685B6813B129462046984703
:10D7B0001034F1E7185D0600285D060010B5044C32
:10D7C0000449204611F0ACF8034B1C6010BD00BFAB
:10D7D000A4510120205F0600AC7C012008B5002385
:10D7E000074A4FF400411370064A07481360074A7E
:10D7F0001360FFF783FFBDE80840FFF7DFBF00BFFE
:10D80000E7A80120B47C0120E3ED0500B87C0120ED
:10D81000014600220023014811F0A3B8A4510120C1
:10D82000014811F03CB900BFA4510120024B014650
:10D83000186811F088B900BFAC7C0120014811F0D4
:10D84000BDB900BFA451012070B5264B187800283F
:10D8500047D0FFF7E5FF054670B1234BD3E8EF1F34
:10D860000139C3E8E21F002AF8D1204C204EB4420F
:10D870002DD32846FFF7DAFF1E4B1F4C1B68002BE9
:10D8800019DD16F0A3FE4FF47A72A0FB020302FB2F
:10D890000131C30B43EA4143D4E900209B1A40F213
:10D8A000E9324FEAD13161EB0001934271F100019D
:10D8B00001D3FFF76BFFD4E9003213F57A7342F11D
:10D8C0000002C4E90032BDE87040FFF7B7BF6368EB
:10D8D0005B7923B12368294620461B68984710349A
:10D8E000C5E770BDE6A80120B87C0120185D0600E0
:10D8F000285D0600B47C0120D05A012070B50D4D82
:10D90000297861B90120FFF7ABFE0B4C0B4EB442F6
:10D9100006D3FFF799FF0028FBD101232B7070BDC0
:10D9200063685B791BB1236820469B689847103475
:10D93000EDE700BFE7A80120185D0600285D06009E
:10D9400000212DE9F0470846FFF78AFE044648B358
:10D9500040F267684FF000090DF088FA1A4B186022
:10D9600030B11A4B1B68092B02DD19480CF064FD1D
:10D970000025184FDFF858A044B12046FFF70AFEF3
:10D98000044618B94FF0FF384FF0FF39FFF75CFF3E
:10D99000064628B9B5B942464B4650460CF080FDC4
:10D9A0003546E9E74FF0FF384FF0FF39D4E72B68F1
:10D9B0009B691BB100222846114698471035BD428D
:10D9C000F5D3E8E7044DFAE7B07C0120B87C0120EC
:10D9D00004530120285D0600185D060013B51848A1
:10D9E00011F001FA174B1B7873B1EFF31184202368
:10D9F00083F31288BFF36F8FFFF726FF84F311883C
:10DA0000BFF36F8F02B010BD0F4B1B68002BF9D016
:10DA100050B9002200230D48CDE900234FF4004205
:10DA200000230DF053FDEDE70928EBD1074816F070
:10DA300020FE074802B0BDE810400CF0FDBC00BF5E
:10DA4000B87C0120E7A80120B07C0120D85A012031
:10DA50000453012010B5064B04461B689847214625
:10DA6000A060044810F0FCFFBDE81040FFF7B6BF0F
:10DA7000A0480120A4510120044A054B9B1AB1EB98
:10DA8000D30F34BF52F8310000207047605B0600AE
:10DA9000185D0600084B10B4C31A44681B1101330B
:10DAA000237143689A7101224368196043685A716F
:10DAB0005DF8044BFFF732BE185D06002DE9F04F0C
:10DAC0008FB0C1F34A2804AF0D469146B8607B6021
:10DAD0000C0DB8F1000F63D000264FF0040B4FF08F
